{
  "_format": "hh-sol-artifact-1",
  "contractName": "VotingTokenERC20",
  "sourceName": "contracts/VotingTokenERC20.sol",
  "abi": [
    {
      "inputs": [
        {
          "internalType": "uint256",
          "name": "total",
          "type": "uint256"
        },
        {
          "internalType": "string[]",
          "name": "_candidates",
          "type": "string[]"
        }
      ],
      "stateMutability": "nonpayable",
      "type": "constructor"
    },
    {
      "anonymous": false,
      "inputs": [
        {
          "indexed": true,
          "internalType": "address",
          "name": "tokenOwner",
          "type": "address"
        },
        {
          "indexed": true,
          "internalType": "address",
          "name": "spender",
          "type": "address"
        },
        {
          "indexed": false,
          "internalType": "uint256",
          "name": "tokens",
          "type": "uint256"
        }
      ],
      "name": "Approval",
      "type": "event"
    },
    {
      "anonymous": false,
      "inputs": [
        {
          "indexed": true,
          "internalType": "address",
          "name": "from",
          "type": "address"
        },
        {
          "indexed": true,
          "internalType": "address",
          "name": "to",
          "type": "address"
        },
        {
          "indexed": false,
          "internalType": "uint256",
          "name": "tokens",
          "type": "uint256"
        }
      ],
      "name": "Transfer",
      "type": "event"
    },
    {
      "anonymous": false,
      "inputs": [
        {
          "indexed": true,
          "internalType": "address",
          "name": "from",
          "type": "address"
        }
      ],
      "name": "Vote",
      "type": "event"
    },
    {
      "inputs": [
        {
          "internalType": "address",
          "name": "tokenOwner",
          "type": "address"
        }
      ],
      "name": "balanceOf",
      "outputs": [
        {
          "internalType": "uint256",
          "name": "",
          "type": "uint256"
        }
      ],
      "stateMutability": "view",
      "type": "function"
    },
    {
      "inputs": [],
      "name": "calculateResults",
      "outputs": [],
      "stateMutability": "nonpayable",
      "type": "function"
    },
    {
      "inputs": [
        {
          "internalType": "uint256",
          "name": "",
          "type": "uint256"
        }
      ],
      "name": "candidates",
      "outputs": [
        {
          "internalType": "string",
          "name": "",
          "type": "string"
        }
      ],
      "stateMutability": "view",
      "type": "function"
    },
    {
      "inputs": [
        {
          "internalType": "address",
          "name": "tokenOwner",
          "type": "address"
        }
      ],
      "name": "castedVotes",
      "outputs": [
        {
          "internalType": "uint256",
          "name": "",
          "type": "uint256"
        }
      ],
      "stateMutability": "view",
      "type": "function"
    },
    {
      "inputs": [],
      "name": "electionEnd",
      "outputs": [
        {
          "internalType": "uint256",
          "name": "",
          "type": "uint256"
        }
      ],
      "stateMutability": "view",
      "type": "function"
    },
    {
      "inputs": [],
      "name": "getCandidates",
      "outputs": [
        {
          "internalType": "string[]",
          "name": "",
          "type": "string[]"
        }
      ],
      "stateMutability": "view",
      "type": "function"
    },
    {
      "inputs": [],
      "name": "getResults",
      "outputs": [
        {
          "internalType": "uint256[]",
          "name": "",
          "type": "uint256[]"
        }
      ],
      "stateMutability": "view",
      "type": "function"
    },
    {
      "inputs": [],
      "name": "name",
      "outputs": [
        {
          "internalType": "string",
          "name": "",
          "type": "string"
        }
      ],
      "stateMutability": "view",
      "type": "function"
    },
    {
      "inputs": [],
      "name": "numCandidates",
      "outputs": [
        {
          "internalType": "uint256",
          "name": "",
          "type": "uint256"
        }
      ],
      "stateMutability": "view",
      "type": "function"
    },
    {
      "inputs": [
        {
          "internalType": "uint256",
          "name": "",
          "type": "uint256"
        }
      ],
      "name": "results",
      "outputs": [
        {
          "internalType": "uint256",
          "name": "",
          "type": "uint256"
        }
      ],
      "stateMutability": "view",
      "type": "function"
    },
    {
      "inputs": [],
      "name": "symbol",
      "outputs": [
        {
          "internalType": "string",
          "name": "",
          "type": "string"
        }
      ],
      "stateMutability": "view",
      "type": "function"
    },
    {
      "inputs": [],
      "name": "totalSupply",
      "outputs": [
        {
          "internalType": "uint256",
          "name": "",
          "type": "uint256"
        }
      ],
      "stateMutability": "view",
      "type": "function"
    },
    {
      "inputs": [
        {
          "internalType": "address",
          "name": "receiver",
          "type": "address"
        },
        {
          "internalType": "uint256",
          "name": "numTokens",
          "type": "uint256"
        }
      ],
      "name": "transfer",
      "outputs": [
        {
          "internalType": "bool",
          "name": "",
          "type": "bool"
        }
      ],
      "stateMutability": "nonpayable",
      "type": "function"
    },
    {
      "inputs": [
        {
          "internalType": "string",
          "name": "candidateName",
          "type": "string"
        }
      ],
      "name": "vote",
      "outputs": [
        {
          "internalType": "bool",
          "name": "",
          "type": "bool"
        }
      ],
      "stateMutability": "nonpayable",
      "type": "function"
    }
  ],
  "bytecode": "0x60806040523480156200001157600080fd5b5060405162001c0938038062001c09833981810160405281019062000037919062000464565b81600781905550600754600360003373ffffffffffffffffffffffffffffffffffffffff1673ffffffffffffffffffffffffffffffffffffffff1681526020019081526020016000208190555080600290805190602001906200009c929190620000ad565b5080516001819055505050620007f2565b828054828255906000526020600020908101928215620000fa579160200282015b82811115620000f9578251829081620000e891906200070b565b5091602001919060010190620000ce565b5b5090506200010991906200010d565b5090565b5b8082111562000131576000818162000127919062000135565b506001016200010e565b5090565b508054620001439062000504565b6000825580601f1062000157575062000178565b601f0160209004906000526020600020908101906200017791906200017b565b5b50565b5b80821115620001965760008160009055506001016200017c565b5090565b6000604051905090565b600080fd5b600080fd5b6000819050919050565b620001c381620001ae565b8114620001cf57600080fd5b50565b600081519050620001e381620001b8565b92915050565b600080fd5b6000601f19601f8301169050919050565b7f4e487b7100000000000000000000000000000000000000000000000000000000600052604160045260246000fd5b6200023982620001ee565b810181811067ffffffffffffffff821117156200025b576200025a620001ff565b5b80604052505050565b6000620002706200019a565b90506200027e82826200022e565b919050565b600067ffffffffffffffff821115620002a157620002a0620001ff565b5b602082029050602081019050919050565b600080fd5b600080fd5b600067ffffffffffffffff821115620002da57620002d9620001ff565b5b620002e582620001ee565b9050602081019050919050565b60005b8381101562000312578082015181840152602081019050620002f5565b60008484015250505050565b6000620003356200032f84620002bc565b62000264565b905082815260208101848484011115620003545762000353620002b7565b5b62000361848285620002f2565b509392505050565b600082601f830112620003815762000380620001e9565b5b8151620003938482602086016200031e565b91505092915050565b6000620003b3620003ad8462000283565b62000264565b90508083825260208201905060208402830185811115620003d957620003d8620002b2565b5b835b818110156200042757805167ffffffffffffffff811115620004025762000401620001e9565b5b80860162000411898262000369565b85526020850194505050602081019050620003db565b5050509392505050565b600082601f830112620004495762000448620001e9565b5b81516200045b8482602086016200039c565b91505092915050565b600080604083850312156200047e576200047d620001a4565b5b60006200048e85828601620001d2565b925050602083015167ffffffffffffffff811115620004b257620004b1620001a9565b5b620004c08582860162000431565b9150509250929050565b600081519050919050565b7f4e487b7100000000000000000000000000000000000000000000000000000000600052602260045260246000fd5b600060028204905060018216806200051d57607f821691505b602082108103620005335762000532620004d5565b5b50919050565b60008190508160005260206000209050919050565b60006020601f8301049050919050565b600082821b905092915050565b6000600883026200059d7fffffffffffffffffffffffffffffffffffffffffffffffffffffffffffffffff826200055e565b620005a986836200055e565b95508019841693508086168417925050509392505050565b6000819050919050565b6000620005ec620005e6620005e084620001ae565b620005c1565b620001ae565b9050919050565b6000819050919050565b6200060883620005cb565b620006206200061782620005f3565b8484546200056b565b825550505050565b600090565b6200063762000628565b62000644818484620005fd565b505050565b5b818110156200066c57620006606000826200062d565b6001810190506200064a565b5050565b601f821115620006bb57620006858162000539565b62000690846200054e565b81016020851015620006a0578190505b620006b8620006af856200054e565b83018262000649565b50505b505050565b600082821c905092915050565b6000620006e060001984600802620006c0565b1980831691505092915050565b6000620006fb8383620006cd565b9150826002028217905092915050565b6200071682620004ca565b67ffffffffffffffff811115620007325762000731620001ff565b5b6200073e825462000504565b6200074b82828562000670565b600060209050601f8311600181146200078357600084156200076e578287015190505b6200077a8582620006ed565b865550620007ea565b601f198416620007938662000539565b60005b82811015620007bd5784890151825560018201915060208501945060208101905062000796565b86831015620007dd5784890151620007d9601f891682620006cd565b8355505b6001600288020188555050505b505050505050565b61140780620008026000396000f3fe608060405234801561001057600080fd5b50600436106100ea5760003560e01c80635216509a1161008c57806395d89b411161006657806395d89b411461024f578063a9059cbb1461026d578063ce7ea1611461029d578063fc36e15b146102bb576100ea565b80635216509a146101d157806370a08231146101ef57806376e5908a1461021f576100ea565b80631b0c27da116100c85780631b0c27da146101495780632ccb0d1e146101795780633477ee2e146101835780634717f97c146101b3576100ea565b806306a49fce146100ef57806306fdde031461010d57806318160ddd1461012b575b600080fd5b6100f76102eb565b6040516101049190610ca4565b60405180910390f35b6101156103c4565b6040516101229190610d10565b60405180910390f35b6101336103fd565b6040516101409190610d4b565b60405180910390f35b610163600480360381019061015e9190610da6565b610407565b6040516101709190610d4b565b60405180910390f35b61018161042b565b005b61019d60048036038101906101989190610da6565b6104ca565b6040516101aa9190610d10565b60405180910390f35b6101bb610576565b6040516101c89190610e91565b60405180910390f35b6101d96105ce565b6040516101e69190610d4b565b60405180910390f35b61020960048036038101906102049190610f11565b6105d4565b6040516102169190610d4b565b60405180910390f35b61023960048036038101906102349190610f11565b61061d565b6040516102469190610d4b565b60405180910390f35b610257610666565b6040516102649190610d10565b60405180910390f35b61028760048036038101906102829190610f3e565b61069f565b6040516102949190610f99565b60405180910390f35b6102a5610886565b6040516102b29190610d4b565b60405180910390f35b6102d560048036038101906102d091906110e9565b61088b565b6040516102e29190610f99565b60405180910390f35b60606002805480602002602001604051908101604052809291908181526020016000905b828210156103bb57838290600052602060002001805461032e90611161565b80601f016020809104026020016040519081016040528092919081815260200182805461035a90611161565b80156103a75780601f1061037c576101008083540402835291602001916103a7565b820191906000526020600020905b81548152906001019060200180831161038a57829003601f168201915b50505050508152602001906001019061030f565b50505050905090565b6040518060400160405280600b81526020017f566f74696e67426173696300000000000000000000000000000000000000000081525081565b6000600754905090565b6000818154811061041757600080fd5b906000526020600020016000915090505481565b610433610ac6565b60005b6002805490508110156104b457600060056002838154811061045b5761045a611192565b5b906000526020600020016040516104729190611264565b90815260200160405180910390205490508083836003811061049757610496611192565b5b6020020181815250505080806104ac906112aa565b915050610436565b508060009060036104c6929190610ae8565b5050565b600281815481106104da57600080fd5b9060005260206000200160009150905080546104f590611161565b80601f016020809104026020016040519081016040528092919081815260200182805461052190611161565b801561056e5780601f106105435761010080835404028352916020019161056e565b820191906000526020600020905b81548152906001019060200180831161055157829003601f168201915b505050505081565b606060008054806020026020016040519081016040528092919081815260200182805480156105c457602002820191906000526020600020905b8154815260200190600101908083116105b0575b5050505050905090565b60015481565b6000600360008373ffffffffffffffffffffffffffffffffffffffff1673ffffffffffffffffffffffffffffffffffffffff168152602001908152602001600020549050919050565b6000600460008373ffffffffffffffffffffffffffffffffffffffff1673ffffffffffffffffffffffffffffffffffffffff168152602001908152602001600020549050919050565b6040518060400160405280600381526020017f56544b000000000000000000000000000000000000000000000000000000000081525081565b6000600360003373ffffffffffffffffffffffffffffffffffffffff1673ffffffffffffffffffffffffffffffffffffffff168152602001908152602001600020548211156106ed57600080fd5b61073f82600360003373ffffffffffffffffffffffffffffffffffffffff1673ffffffffffffffffffffffffffffffffffffffff16815260200190815260200160002054610a7390919063ffffffff16565b600360003373ffffffffffffffffffffffffffffffffffffffff1673ffffffffffffffffffffffffffffffffffffffff168152602001908152602001600020819055506107d482600360008673ffffffffffffffffffffffffffffffffffffffff1673ffffffffffffffffffffffffffffffffffffffff16815260200190815260200160002054610a9a90919063ffffffff16565b600360008573ffffffffffffffffffffffffffffffffffffffff1673ffffffffffffffffffffffffffffffffffffffff168152602001908152602001600020819055508273ffffffffffffffffffffffffffffffffffffffff163373ffffffffffffffffffffffffffffffffffffffff167fddf252ad1be2c89b69c2b068fc378daa952ba7f163c4a11628f55a4df523b3ef846040516108749190610d4b565b60405180910390a36001905092915050565b600081565b6000600460003373ffffffffffffffffffffffffffffffffffffffff1673ffffffffffffffffffffffffffffffffffffffff16815260200190815260200160002054600360003373ffffffffffffffffffffffffffffffffffffffff1673ffffffffffffffffffffffffffffffffffffffff1681526020019081526020016000205411801561095a57506000600360003373ffffffffffffffffffffffffffffffffffffffff1673ffffffffffffffffffffffffffffffffffffffff1681526020019081526020016000205414155b61096357600080fd5b6001600460003373ffffffffffffffffffffffffffffffffffffffff1673ffffffffffffffffffffffffffffffffffffffff168152602001908152602001600020541015610a6a576001600460003373ffffffffffffffffffffffffffffffffffffffff1673ffffffffffffffffffffffffffffffffffffffff168152602001908152602001600020819055506001600583604051610a029190611323565b90815260200160405180910390206000828254610a1f919061133a565b925050819055503373ffffffffffffffffffffffffffffffffffffffff167ff5b08346e1e6b0b55d07ce94e81fcb198d47fbbecfea3b9a476f454c86761ec460405160405180910390a25b60019050919050565b600082821115610a8657610a8561136e565b5b8183610a92919061139d565b905092915050565b6000808284610aa9919061133a565b905083811015610abc57610abb61136e565b5b8091505092915050565b6040518060600160405280600390602082028036833780820191505090505090565b828054828255906000526020600020908101928215610b24579160200282015b82811115610b23578251825591602001919060010190610b08565b5b509050610b319190610b35565b5090565b5b80821115610b4e576000816000905550600101610b36565b5090565b600081519050919050565b600082825260208201905092915050565b6000819050602082019050919050565b600081519050919050565b600082825260208201905092915050565b60005b83811015610bb8578082015181840152602081019050610b9d565b60008484015250505050565b6000601f19601f8301169050919050565b6000610be082610b7e565b610bea8185610b89565b9350610bfa818560208601610b9a565b610c0381610bc4565b840191505092915050565b6000610c1a8383610bd5565b905092915050565b6000602082019050919050565b6000610c3a82610b52565b610c448185610b5d565b935083602082028501610c5685610b6e565b8060005b85811015610c925784840389528151610c738582610c0e565b9450610c7e83610c22565b925060208a01995050600181019050610c5a565b50829750879550505050505092915050565b60006020820190508181036000830152610cbe8184610c2f565b905092915050565b600082825260208201905092915050565b6000610ce282610b7e565b610cec8185610cc6565b9350610cfc818560208601610b9a565b610d0581610bc4565b840191505092915050565b60006020820190508181036000830152610d2a8184610cd7565b905092915050565b6000819050919050565b610d4581610d32565b82525050565b6000602082019050610d606000830184610d3c565b92915050565b6000604051905090565b600080fd5b600080fd5b610d8381610d32565b8114610d8e57600080fd5b50565b600081359050610da081610d7a565b92915050565b600060208284031215610dbc57610dbb610d70565b5b6000610dca84828501610d91565b91505092915050565b600081519050919050565b600082825260208201905092915050565b6000819050602082019050919050565b610e0881610d32565b82525050565b6000610e1a8383610dff565b60208301905092915050565b6000602082019050919050565b6000610e3e82610dd3565b610e488185610dde565b9350610e5383610def565b8060005b83811015610e84578151610e6b8882610e0e565b9750610e7683610e26565b925050600181019050610e57565b5085935050505092915050565b60006020820190508181036000830152610eab8184610e33565b905092915050565b600073ffffffffffffffffffffffffffffffffffffffff82169050919050565b6000610ede82610eb3565b9050919050565b610eee81610ed3565b8114610ef957600080fd5b50565b600081359050610f0b81610ee5565b92915050565b600060208284031215610f2757610f26610d70565b5b6000610f3584828501610efc565b91505092915050565b60008060408385031215610f5557610f54610d70565b5b6000610f6385828601610efc565b9250506020610f7485828601610d91565b9150509250929050565b60008115159050919050565b610f9381610f7e565b82525050565b6000602082019050610fae6000830184610f8a565b92915050565b600080fd5b600080fd5b7f4e487b7100000000000000000000000000000000000000000000000000000000600052604160045260246000fd5b610ff682610bc4565b810181811067ffffffffffffffff8211171561101557611014610fbe565b5b80604052505050565b6000611028610d66565b90506110348282610fed565b919050565b600067ffffffffffffffff82111561105457611053610fbe565b5b61105d82610bc4565b9050602081019050919050565b82818337600083830152505050565b600061108c61108784611039565b61101e565b9050828152602081018484840111156110a8576110a7610fb9565b5b6110b384828561106a565b509392505050565b600082601f8301126110d0576110cf610fb4565b5b81356110e0848260208601611079565b91505092915050565b6000602082840312156110ff576110fe610d70565b5b600082013567ffffffffffffffff81111561111d5761111c610d75565b5b611129848285016110bb565b91505092915050565b7f4e487b7100000000000000000000000000000000000000000000000000000000600052602260045260246000fd5b6000600282049050600182168061117957607f821691505b60208210810361118c5761118b611132565b5b50919050565b7f4e487b7100000000000000000000000000000000000000000000000000000000600052603260045260246000fd5b600081905092915050565b60008190508160005260206000209050919050565b600081546111ee81611161565b6111f881866111c1565b9450600182166000811461121357600181146112285761125b565b60ff198316865281151582028601935061125b565b611231856111cc565b60005b8381101561125357815481890152600182019150602081019050611234565b838801955050505b50505092915050565b600061127082846111e1565b915081905092915050565b7f4e487b7100000000000000000000000000000000000000000000000000000000600052601160045260246000fd5b60006112b582610d32565b91507fffffffffffffffffffffffffffffffffffffffffffffffffffffffffffffffff82036112e7576112e661127b565b5b600182019050919050565b60006112fd82610b7e565b61130781856111c1565b9350611317818560208601610b9a565b80840191505092915050565b600061132f82846112f2565b915081905092915050565b600061134582610d32565b915061135083610d32565b92508282019050808211156113685761136761127b565b5b92915050565b7f4e487b7100000000000000000000000000000000000000000000000000000000600052600160045260246000fd5b60006113a882610d32565b91506113b383610d32565b92508282039050818111156113cb576113ca61127b565b5b9291505056fea26469706673582212206845db148320f0c128282e6f7fe91b457d5420b0e182261383667325e1251ac964736f6c63430008110033",
  "linkReferences": {},
  "deployedLinkReferences": {}
}