{
  "_format": "hh-sol-artifact-1",
  "contractName": "VotingTokenERC20",
  "sourceName": "contracts/VotingTokenERC20.sol",
  "abi": [
    {
      "inputs": [
        {
          "internalType": "uint256",
          "name": "total",
          "type": "uint256"
        },
        {
          "internalType": "string[]",
          "name": "candidateNames",
          "type": "string[]"
        }
      ],
      "stateMutability": "nonpayable",
      "type": "constructor"
    },
    {
      "anonymous": false,
      "inputs": [
        {
          "indexed": true,
          "internalType": "address",
          "name": "tokenOwner",
          "type": "address"
        },
        {
          "indexed": true,
          "internalType": "address",
          "name": "spender",
          "type": "address"
        },
        {
          "indexed": false,
          "internalType": "uint256",
          "name": "tokens",
          "type": "uint256"
        }
      ],
      "name": "Approval",
      "type": "event"
    },
    {
      "anonymous": false,
      "inputs": [
        {
          "indexed": true,
          "internalType": "address",
          "name": "from",
          "type": "address"
        },
        {
          "indexed": true,
          "internalType": "address",
          "name": "to",
          "type": "address"
        },
        {
          "indexed": false,
          "internalType": "uint256",
          "name": "tokens",
          "type": "uint256"
        }
      ],
      "name": "Transfer",
      "type": "event"
    },
    {
      "anonymous": false,
      "inputs": [
        {
          "indexed": true,
          "internalType": "address",
          "name": "from",
          "type": "address"
        }
      ],
      "name": "Vote",
      "type": "event"
    },
    {
      "inputs": [
        {
          "internalType": "address",
          "name": "tokenOwner",
          "type": "address"
        }
      ],
      "name": "balanceOf",
      "outputs": [
        {
          "internalType": "uint256",
          "name": "",
          "type": "uint256"
        }
      ],
      "stateMutability": "view",
      "type": "function"
    },
    {
      "inputs": [],
      "name": "calculateResults",
      "outputs": [],
      "stateMutability": "nonpayable",
      "type": "function"
    },
    {
      "inputs": [
        {
          "internalType": "uint256",
          "name": "",
          "type": "uint256"
        }
      ],
      "name": "candidates",
      "outputs": [
        {
          "internalType": "uint256",
          "name": "id",
          "type": "uint256"
        },
        {
          "internalType": "string",
          "name": "name",
          "type": "string"
        },
        {
          "internalType": "uint256",
          "name": "votes",
          "type": "uint256"
        }
      ],
      "stateMutability": "view",
      "type": "function"
    },
    {
      "inputs": [
        {
          "internalType": "address",
          "name": "tokenOwner",
          "type": "address"
        }
      ],
      "name": "castedVotes",
      "outputs": [
        {
          "internalType": "uint256",
          "name": "",
          "type": "uint256"
        }
      ],
      "stateMutability": "view",
      "type": "function"
    },
    {
      "inputs": [
        {
          "internalType": "string",
          "name": "a",
          "type": "string"
        },
        {
          "internalType": "string",
          "name": "b",
          "type": "string"
        }
      ],
      "name": "compare",
      "outputs": [
        {
          "internalType": "bool",
          "name": "",
          "type": "bool"
        }
      ],
      "stateMutability": "pure",
      "type": "function"
    },
    {
      "inputs": [
        {
          "internalType": "string",
          "name": "s1",
          "type": "string"
        },
        {
          "internalType": "string",
          "name": "s2",
          "type": "string"
        }
      ],
      "name": "compareTwoStrings",
      "outputs": [
        {
          "internalType": "bool",
          "name": "",
          "type": "bool"
        }
      ],
      "stateMutability": "pure",
      "type": "function"
    },
    {
      "inputs": [],
      "name": "electionEnd",
      "outputs": [
        {
          "internalType": "uint256",
          "name": "",
          "type": "uint256"
        }
      ],
      "stateMutability": "view",
      "type": "function"
    },
    {
      "inputs": [],
      "name": "getCandidates",
      "outputs": [
        {
          "components": [
            {
              "internalType": "uint256",
              "name": "id",
              "type": "uint256"
            },
            {
              "internalType": "string",
              "name": "name",
              "type": "string"
            },
            {
              "internalType": "uint256",
              "name": "votes",
              "type": "uint256"
            }
          ],
          "internalType": "struct VotingTokenERC20.Candidate[]",
          "name": "",
          "type": "tuple[]"
        }
      ],
      "stateMutability": "view",
      "type": "function"
    },
    {
      "inputs": [],
      "name": "getResults",
      "outputs": [
        {
          "internalType": "uint256[]",
          "name": "",
          "type": "uint256[]"
        }
      ],
      "stateMutability": "view",
      "type": "function"
    },
    {
      "inputs": [],
      "name": "name",
      "outputs": [
        {
          "internalType": "string",
          "name": "",
          "type": "string"
        }
      ],
      "stateMutability": "view",
      "type": "function"
    },
    {
      "inputs": [],
      "name": "numCandidates",
      "outputs": [
        {
          "internalType": "uint256",
          "name": "",
          "type": "uint256"
        }
      ],
      "stateMutability": "view",
      "type": "function"
    },
    {
      "inputs": [
        {
          "internalType": "uint256",
          "name": "",
          "type": "uint256"
        }
      ],
      "name": "results",
      "outputs": [
        {
          "internalType": "uint256",
          "name": "",
          "type": "uint256"
        }
      ],
      "stateMutability": "view",
      "type": "function"
    },
    {
      "inputs": [],
      "name": "symbol",
      "outputs": [
        {
          "internalType": "string",
          "name": "",
          "type": "string"
        }
      ],
      "stateMutability": "view",
      "type": "function"
    },
    {
      "inputs": [],
      "name": "totalSupply",
      "outputs": [
        {
          "internalType": "uint256",
          "name": "",
          "type": "uint256"
        }
      ],
      "stateMutability": "view",
      "type": "function"
    },
    {
      "inputs": [
        {
          "internalType": "address",
          "name": "receiver",
          "type": "address"
        },
        {
          "internalType": "uint256",
          "name": "numTokens",
          "type": "uint256"
        }
      ],
      "name": "transfer",
      "outputs": [
        {
          "internalType": "bool",
          "name": "",
          "type": "bool"
        }
      ],
      "stateMutability": "nonpayable",
      "type": "function"
    },
    {
      "inputs": [
        {
          "internalType": "string",
          "name": "_nameCandidate",
          "type": "string"
        }
      ],
      "name": "vote",
      "outputs": [
        {
          "internalType": "bool",
          "name": "",
          "type": "bool"
        }
      ],
      "stateMutability": "nonpayable",
      "type": "function"
    }
  ],
  "bytecode": "0x608060405260006001553480156200001657600080fd5b5060405162001eda38038062001eda83398181016040528101906200003c91906200042c565b81600781905550600754600260003373ffffffffffffffffffffffffffffffffffffffff1673ffffffffffffffffffffffffffffffffffffffff1681526020019081526020016000208190555060005b8151811015620000da57620000c4828281518110620000b057620000af62000492565b5b6020026020010151620000e360201b60201c565b8080620000d190620004f0565b9150506200008c565b50505062000865565b6040518060600160405280600154815260200182815260200160008152506006600060015481526020019081526020016000206000820151816000015560208201518160010190816200013791906200077e565b5060408201518160020155905050600160008154809291906200015a90620004f0565b919050555050565b6000604051905090565b600080fd5b600080fd5b6000819050919050565b6200018b8162000176565b81146200019757600080fd5b50565b600081519050620001ab8162000180565b92915050565b600080fd5b6000601f19601f8301169050919050565b7f4e487b7100000000000000000000000000000000000000000000000000000000600052604160045260246000fd5b6200020182620001b6565b810181811067ffffffffffffffff82111715620002235762000222620001c7565b5b80604052505050565b60006200023862000162565b9050620002468282620001f6565b919050565b600067ffffffffffffffff821115620002695762000268620001c7565b5b602082029050602081019050919050565b600080fd5b600080fd5b600067ffffffffffffffff821115620002a257620002a1620001c7565b5b620002ad82620001b6565b9050602081019050919050565b60005b83811015620002da578082015181840152602081019050620002bd565b60008484015250505050565b6000620002fd620002f78462000284565b6200022c565b9050828152602081018484840111156200031c576200031b6200027f565b5b62000329848285620002ba565b509392505050565b600082601f830112620003495762000348620001b1565b5b81516200035b848260208601620002e6565b91505092915050565b60006200037b62000375846200024b565b6200022c565b90508083825260208201905060208402830185811115620003a157620003a06200027a565b5b835b81811015620003ef57805167ffffffffffffffff811115620003ca57620003c9620001b1565b5b808601620003d9898262000331565b85526020850194505050602081019050620003a3565b5050509392505050565b600082601f830112620004115762000410620001b1565b5b81516200042384826020860162000364565b91505092915050565b600080604083850312156200044657620004456200016c565b5b600062000456858286016200019a565b925050602083015167ffffffffffffffff8111156200047a576200047962000171565b5b6200048885828601620003f9565b9150509250929050565b7f4e487b7100000000000000000000000000000000000000000000000000000000600052603260045260246000fd5b7f4e487b7100000000000000000000000000000000000000000000000000000000600052601160045260246000fd5b6000620004fd8262000176565b91507fffffffffffffffffffffffffffffffffffffffffffffffffffffffffffffffff8203620005325762000531620004c1565b5b600182019050919050565b600081519050919050565b7f4e487b7100000000000000000000000000000000000000000000000000000000600052602260045260246000fd5b600060028204905060018216806200059057607f821691505b602082108103620005a657620005a562000548565b5b50919050565b60008190508160005260206000209050919050565b60006020601f8301049050919050565b600082821b905092915050565b600060088302620006107fffffffffffffffffffffffffffffffffffffffffffffffffffffffffffffffff82620005d1565b6200061c8683620005d1565b95508019841693508086168417925050509392505050565b6000819050919050565b60006200065f62000659620006538462000176565b62000634565b62000176565b9050919050565b6000819050919050565b6200067b836200063e565b620006936200068a8262000666565b848454620005de565b825550505050565b600090565b620006aa6200069b565b620006b781848462000670565b505050565b5b81811015620006df57620006d3600082620006a0565b600181019050620006bd565b5050565b601f8211156200072e57620006f881620005ac565b6200070384620005c1565b8101602085101562000713578190505b6200072b6200072285620005c1565b830182620006bc565b50505b505050565b600082821c905092915050565b6000620007536000198460080262000733565b1980831691505092915050565b60006200076e838362000740565b9150826002028217905092915050565b62000789826200053d565b67ffffffffffffffff811115620007a557620007a4620001c7565b5b620007b1825462000577565b620007be828285620006e3565b600060209050601f831160018114620007f65760008415620007e1578287015190505b620007ed858262000760565b8655506200085d565b601f1984166200080686620005ac565b60005b82811015620008305784890151825560018201915060208501945060208101905062000809565b868310156200085057848901516200084c601f89168262000740565b8355505b6001600288020188555050505b505050505050565b61166580620008756000396000f3fe608060405234801561001057600080fd5b50600436106101005760003560e01c80635216509a11610097578063a9059cbb11610066578063a9059cbb146102b5578063ce7ea161146102e5578063ef01a9a814610303578063fc36e15b1461033357610100565b80635216509a1461021957806370a082311461023757806376e5908a1461026757806395d89b411461029757610100565b80632ccb0d1e116100d35780632ccb0d1e1461018f5780633477ee2e146101995780633a96fdd7146101cb5780634717f97c146101fb57610100565b806306a49fce1461010557806306fdde031461012357806318160ddd146101415780631b0c27da1461015f575b600080fd5b61010d610363565b60405161011a9190610f14565b60405180910390f35b61012b6104cf565b6040516101389190610f80565b60405180910390f35b610149610508565b6040516101569190610fb1565b60405180910390f35b6101796004803603810190610174919061100c565b610512565b6040516101869190610fb1565b60405180910390f35b610197610536565b005b6101b360048036038101906101ae919061100c565b610574565b6040516101c293929190611039565b60405180910390f35b6101e560048036038101906101e091906111ac565b610626565b6040516101f2919061123f565b60405180910390f35b61020361063a565b6040516102109190611309565b60405180910390f35b610221610692565b60405161022e9190610fb1565b60405180910390f35b610251600480360381019061024c9190611389565b610698565b60405161025e9190610fb1565b60405180910390f35b610281600480360381019061027c9190611389565b6106e1565b60405161028e9190610fb1565b60405180910390f35b61029f61072a565b6040516102ac9190610f80565b60405180910390f35b6102cf60048036038101906102ca91906113b6565b610763565b6040516102dc919061123f565b60405180910390f35b6102ed61094a565b6040516102fa9190610fb1565b60405180910390f35b61031d600480360381019061031891906111ac565b61094f565b60405161032a919061123f565b60405180910390f35b61034d600480360381019061034891906113f6565b6109a8565b60405161035a919061123f565b60405180910390f35b6060600060015467ffffffffffffffff81111561038357610382611081565b5b6040519080825280602002602001820160405280156103bc57816020015b6103a9610cac565b8152602001906001900390816103a15790505b50905060005b6001548110156104c757600060066000838152602001908152602001600020905080604051806060016040529081600082015481526020016001820180546104099061146e565b80601f01602080910402602001604051908101604052809291908181526020018280546104359061146e565b80156104825780601f1061045757610100808354040283529160200191610482565b820191906000526020600020905b81548152906001019060200180831161046557829003601f168201915b505050505081526020016002820154815250508383815181106104a8576104a761149f565b5b60200260200101819052505080806104bf906114fd565b9150506103c2565b508091505090565b6040518060400160405280600b81526020017f566f74696e67426173696300000000000000000000000000000000000000000081525081565b6000600754905090565b6000818154811061052257600080fd5b906000526020600020016000915090505481565b61053e610ccd565b60005b60015481101561055e578080610556906114fd565b915050610541565b50806000906003610570929190610cef565b5050565b600660205280600052604060002060009150905080600001549080600101805461059d9061146e565b80601f01602080910402602001604051908101604052809291908181526020018280546105c99061146e565b80156106165780601f106105eb57610100808354040283529160200191610616565b820191906000526020600020905b8154815290600101906020018083116105f957829003601f168201915b5050505050908060020154905083565b6000610632838361094f565b905092915050565b6060600080548060200260200160405190810160405280929190818152602001828054801561068857602002820191906000526020600020905b815481526020019060010190808311610674575b5050505050905090565b60015481565b6000600260008373ffffffffffffffffffffffffffffffffffffffff1673ffffffffffffffffffffffffffffffffffffffff168152602001908152602001600020549050919050565b6000600360008373ffffffffffffffffffffffffffffffffffffffff1673ffffffffffffffffffffffffffffffffffffffff168152602001908152602001600020549050919050565b6040518060400160405280600381526020017f56544b000000000000000000000000000000000000000000000000000000000081525081565b6000600260003373ffffffffffffffffffffffffffffffffffffffff1673ffffffffffffffffffffffffffffffffffffffff168152602001908152602001600020548211156107b157600080fd5b61080382600260003373ffffffffffffffffffffffffffffffffffffffff1673ffffffffffffffffffffffffffffffffffffffff16815260200190815260200160002054610c5990919063ffffffff16565b600260003373ffffffffffffffffffffffffffffffffffffffff1673ffffffffffffffffffffffffffffffffffffffff1681526020019081526020016000208190555061089882600260008673ffffffffffffffffffffffffffffffffffffffff1673ffffffffffffffffffffffffffffffffffffffff16815260200190815260200160002054610c8090919063ffffffff16565b600260008573ffffffffffffffffffffffffffffffffffffffff1673ffffffffffffffffffffffffffffffffffffffff168152602001908152602001600020819055508273ffffffffffffffffffffffffffffffffffffffff163373ffffffffffffffffffffffffffffffffffffffff167fddf252ad1be2c89b69c2b068fc378daa952ba7f163c4a11628f55a4df523b3ef846040516109389190610fb1565b60405180910390a36001905092915050565b600081565b6000816040516020016109629190611581565b60405160208183030381529060405280519060200120836040516020016109899190611581565b6040516020818303038152906040528051906020012014905092915050565b6000600360003373ffffffffffffffffffffffffffffffffffffffff1673ffffffffffffffffffffffffffffffffffffffff16815260200190815260200160002054600260003373ffffffffffffffffffffffffffffffffffffffff1673ffffffffffffffffffffffffffffffffffffffff16815260200190815260200160002054118015610a7757506000600260003373ffffffffffffffffffffffffffffffffffffffff1673ffffffffffffffffffffffffffffffffffffffff1681526020019081526020016000205414155b610a8057600080fd5b6001600360003373ffffffffffffffffffffffffffffffffffffffff1673ffffffffffffffffffffffffffffffffffffffff168152602001908152602001600020541015610c505760005b600154811015610c0b576000600660008381526020019081526020016000206001018054610af89061146e565b80601f0160208091040260200160405190810160405280929190818152602001828054610b249061146e565b8015610b715780601f10610b4657610100808354040283529160200191610b71565b820191906000526020600020905b815481529060010190602001808311610b5457829003601f168201915b50505050509050610b828185610626565b15610bf7576006600083815260200190815260200160002060020160008154610baa906114fd565b919050819055506001600360003373ffffffffffffffffffffffffffffffffffffffff1673ffffffffffffffffffffffffffffffffffffffff168152602001908152602001600020819055505b508080610c03906114fd565b915050610acb565b503373ffffffffffffffffffffffffffffffffffffffff167ff5b08346e1e6b0b55d07ce94e81fcb198d47fbbecfea3b9a476f454c86761ec460405160405180910390a25b60019050919050565b600082821115610c6c57610c6b611598565b5b8183610c7891906115c7565b905092915050565b6000808284610c8f91906115fb565b905083811015610ca257610ca1611598565b5b8091505092915050565b60405180606001604052806000815260200160608152602001600081525090565b6040518060600160405280600390602082028036833780820191505090505090565b828054828255906000526020600020908101928215610d2b579160200282015b82811115610d2a578251825591602001919060010190610d0f565b5b509050610d389190610d3c565b5090565b5b80821115610d55576000816000905550600101610d3d565b5090565b600081519050919050565b600082825260208201905092915050565b6000819050602082019050919050565b6000819050919050565b610d9881610d85565b82525050565b600081519050919050565b600082825260208201905092915050565b60005b83811015610dd8578082015181840152602081019050610dbd565b60008484015250505050565b6000601f19601f8301169050919050565b6000610e0082610d9e565b610e0a8185610da9565b9350610e1a818560208601610dba565b610e2381610de4565b840191505092915050565b6000606083016000830151610e466000860182610d8f565b5060208301518482036020860152610e5e8282610df5565b9150506040830151610e736040860182610d8f565b508091505092915050565b6000610e8a8383610e2e565b905092915050565b6000602082019050919050565b6000610eaa82610d59565b610eb48185610d64565b935083602082028501610ec685610d75565b8060005b85811015610f025784840389528151610ee38582610e7e565b9450610eee83610e92565b925060208a01995050600181019050610eca565b50829750879550505050505092915050565b60006020820190508181036000830152610f2e8184610e9f565b905092915050565b600082825260208201905092915050565b6000610f5282610d9e565b610f5c8185610f36565b9350610f6c818560208601610dba565b610f7581610de4565b840191505092915050565b60006020820190508181036000830152610f9a8184610f47565b905092915050565b610fab81610d85565b82525050565b6000602082019050610fc66000830184610fa2565b92915050565b6000604051905090565b600080fd5b600080fd5b610fe981610d85565b8114610ff457600080fd5b50565b60008135905061100681610fe0565b92915050565b60006020828403121561102257611021610fd6565b5b600061103084828501610ff7565b91505092915050565b600060608201905061104e6000830186610fa2565b81810360208301526110608185610f47565b905061106f6040830184610fa2565b949350505050565b600080fd5b600080fd5b7f4e487b7100000000000000000000000000000000000000000000000000000000600052604160045260246000fd5b6110b982610de4565b810181811067ffffffffffffffff821117156110d8576110d7611081565b5b80604052505050565b60006110eb610fcc565b90506110f782826110b0565b919050565b600067ffffffffffffffff82111561111757611116611081565b5b61112082610de4565b9050602081019050919050565b82818337600083830152505050565b600061114f61114a846110fc565b6110e1565b90508281526020810184848401111561116b5761116a61107c565b5b61117684828561112d565b509392505050565b600082601f83011261119357611192611077565b5b81356111a384826020860161113c565b91505092915050565b600080604083850312156111c3576111c2610fd6565b5b600083013567ffffffffffffffff8111156111e1576111e0610fdb565b5b6111ed8582860161117e565b925050602083013567ffffffffffffffff81111561120e5761120d610fdb565b5b61121a8582860161117e565b9150509250929050565b60008115159050919050565b61123981611224565b82525050565b60006020820190506112546000830184611230565b92915050565b600081519050919050565b600082825260208201905092915050565b6000819050602082019050919050565b60006112928383610d8f565b60208301905092915050565b6000602082019050919050565b60006112b68261125a565b6112c08185611265565b93506112cb83611276565b8060005b838110156112fc5781516112e38882611286565b97506112ee8361129e565b9250506001810190506112cf565b5085935050505092915050565b6000602082019050818103600083015261132381846112ab565b905092915050565b600073ffffffffffffffffffffffffffffffffffffffff82169050919050565b60006113568261132b565b9050919050565b6113668161134b565b811461137157600080fd5b50565b6000813590506113838161135d565b92915050565b60006020828403121561139f5761139e610fd6565b5b60006113ad84828501611374565b91505092915050565b600080604083850312156113cd576113cc610fd6565b5b60006113db85828601611374565b92505060206113ec85828601610ff7565b9150509250929050565b60006020828403121561140c5761140b610fd6565b5b600082013567ffffffffffffffff81111561142a57611429610fdb565b5b6114368482850161117e565b91505092915050565b7f4e487b7100000000000000000000000000000000000000000000000000000000600052602260045260246000fd5b6000600282049050600182168061148657607f821691505b6020821081036114995761149861143f565b5b50919050565b7f4e487b7100000000000000000000000000000000000000000000000000000000600052603260045260246000fd5b7f4e487b7100000000000000000000000000000000000000000000000000000000600052601160045260246000fd5b600061150882610d85565b91507fffffffffffffffffffffffffffffffffffffffffffffffffffffffffffffffff820361153a576115396114ce565b5b600182019050919050565b600081905092915050565b600061155b82610d9e565b6115658185611545565b9350611575818560208601610dba565b80840191505092915050565b600061158d8284611550565b915081905092915050565b7f4e487b7100000000000000000000000000000000000000000000000000000000600052600160045260246000fd5b60006115d282610d85565b91506115dd83610d85565b92508282039050818111156115f5576115f46114ce565b5b92915050565b600061160682610d85565b915061161183610d85565b9250828201905080821115611629576116286114ce565b5b9291505056fea26469706673582212206c21d0218be7825b2a44ad6f112aff3347d5e5095945ba3a962a616f2c08cb5564736f6c63430008110033",
  "linkReferences": {},
  "deployedLinkReferences": {}
}