{
  "_format": "hh-sol-artifact-1",
  "contractName": "VotingTokenERC20",
  "sourceName": "contracts/VotingTokenERC20.sol",
  "abi": [
    {
      "inputs": [
        {
          "internalType": "uint256",
          "name": "total",
          "type": "uint256"
        },
        {
          "internalType": "string[]",
          "name": "_candidates",
          "type": "string[]"
        }
      ],
      "stateMutability": "nonpayable",
      "type": "constructor"
    },
    {
      "anonymous": false,
      "inputs": [
        {
          "indexed": true,
          "internalType": "address",
          "name": "tokenOwner",
          "type": "address"
        },
        {
          "indexed": true,
          "internalType": "address",
          "name": "spender",
          "type": "address"
        },
        {
          "indexed": false,
          "internalType": "uint256",
          "name": "tokens",
          "type": "uint256"
        }
      ],
      "name": "Approval",
      "type": "event"
    },
    {
      "anonymous": false,
      "inputs": [
        {
          "indexed": true,
          "internalType": "address",
          "name": "from",
          "type": "address"
        },
        {
          "indexed": true,
          "internalType": "address",
          "name": "to",
          "type": "address"
        },
        {
          "indexed": false,
          "internalType": "uint256",
          "name": "tokens",
          "type": "uint256"
        }
      ],
      "name": "Transfer",
      "type": "event"
    },
    {
      "anonymous": false,
      "inputs": [
        {
          "indexed": true,
          "internalType": "address",
          "name": "from",
          "type": "address"
        }
      ],
      "name": "Vote",
      "type": "event"
    },
    {
      "inputs": [
        {
          "internalType": "address",
          "name": "tokenOwner",
          "type": "address"
        }
      ],
      "name": "balanceOf",
      "outputs": [
        {
          "internalType": "uint256",
          "name": "",
          "type": "uint256"
        }
      ],
      "stateMutability": "view",
      "type": "function"
    },
    {
      "inputs": [],
      "name": "calculateResults",
      "outputs": [],
      "stateMutability": "nonpayable",
      "type": "function"
    },
    {
      "inputs": [
        {
          "internalType": "uint256",
          "name": "",
          "type": "uint256"
        }
      ],
      "name": "candidates",
      "outputs": [
        {
          "internalType": "string",
          "name": "",
          "type": "string"
        }
      ],
      "stateMutability": "view",
      "type": "function"
    },
    {
      "inputs": [
        {
          "internalType": "address",
          "name": "tokenOwner",
          "type": "address"
        }
      ],
      "name": "castedVotes",
      "outputs": [
        {
          "internalType": "uint256",
          "name": "",
          "type": "uint256"
        }
      ],
      "stateMutability": "view",
      "type": "function"
    },
    {
      "inputs": [],
      "name": "decimals",
      "outputs": [
        {
          "internalType": "uint8",
          "name": "",
          "type": "uint8"
        }
      ],
      "stateMutability": "view",
      "type": "function"
    },
    {
      "inputs": [],
      "name": "electionEnd",
      "outputs": [
        {
          "internalType": "uint256",
          "name": "",
          "type": "uint256"
        }
      ],
      "stateMutability": "view",
      "type": "function"
    },
    {
      "inputs": [],
      "name": "getCandidates",
      "outputs": [
        {
          "internalType": "string[]",
          "name": "",
          "type": "string[]"
        }
      ],
      "stateMutability": "view",
      "type": "function"
    },
    {
      "inputs": [],
      "name": "getResults",
      "outputs": [
        {
          "internalType": "uint256[]",
          "name": "",
          "type": "uint256[]"
        }
      ],
      "stateMutability": "view",
      "type": "function"
    },
    {
      "inputs": [],
      "name": "name",
      "outputs": [
        {
          "internalType": "string",
          "name": "",
          "type": "string"
        }
      ],
      "stateMutability": "view",
      "type": "function"
    },
    {
      "inputs": [],
      "name": "numCandidates",
      "outputs": [
        {
          "internalType": "uint256",
          "name": "",
          "type": "uint256"
        }
      ],
      "stateMutability": "view",
      "type": "function"
    },
    {
      "inputs": [
        {
          "internalType": "uint256",
          "name": "",
          "type": "uint256"
        }
      ],
      "name": "results",
      "outputs": [
        {
          "internalType": "uint256",
          "name": "",
          "type": "uint256"
        }
      ],
      "stateMutability": "view",
      "type": "function"
    },
    {
      "inputs": [],
      "name": "symbol",
      "outputs": [
        {
          "internalType": "string",
          "name": "",
          "type": "string"
        }
      ],
      "stateMutability": "view",
      "type": "function"
    },
    {
      "inputs": [],
      "name": "totalSupply",
      "outputs": [
        {
          "internalType": "uint256",
          "name": "",
          "type": "uint256"
        }
      ],
      "stateMutability": "view",
      "type": "function"
    },
    {
      "inputs": [
        {
          "internalType": "address",
          "name": "receiver",
          "type": "address"
        },
        {
          "internalType": "uint256",
          "name": "numTokens",
          "type": "uint256"
        }
      ],
      "name": "transfer",
      "outputs": [
        {
          "internalType": "bool",
          "name": "",
          "type": "bool"
        }
      ],
      "stateMutability": "nonpayable",
      "type": "function"
    },
    {
      "inputs": [
        {
          "internalType": "address",
          "name": "owner",
          "type": "address"
        },
        {
          "internalType": "address",
          "name": "buyer",
          "type": "address"
        },
        {
          "internalType": "uint256",
          "name": "numTokens",
          "type": "uint256"
        }
      ],
      "name": "transferFrom",
      "outputs": [
        {
          "internalType": "bool",
          "name": "",
          "type": "bool"
        }
      ],
      "stateMutability": "nonpayable",
      "type": "function"
    },
    {
      "inputs": [
        {
          "internalType": "string",
          "name": "candidateName",
          "type": "string"
        }
      ],
      "name": "vote",
      "outputs": [
        {
          "internalType": "bool",
          "name": "",
          "type": "bool"
        }
      ],
      "stateMutability": "nonpayable",
      "type": "function"
    }
  ],
  "bytecode": "0x60806040523480156200001157600080fd5b506040516200207c3803806200207c833981810160405281019062000037919062000464565b81600781905550600754600360003373ffffffffffffffffffffffffffffffffffffffff1673ffffffffffffffffffffffffffffffffffffffff1681526020019081526020016000208190555080600290805190602001906200009c929190620000ad565b5080516001819055505050620007f2565b828054828255906000526020600020908101928215620000fa579160200282015b82811115620000f9578251829081620000e891906200070b565b5091602001919060010190620000ce565b5b5090506200010991906200010d565b5090565b5b8082111562000131576000818162000127919062000135565b506001016200010e565b5090565b508054620001439062000504565b6000825580601f1062000157575062000178565b601f0160209004906000526020600020908101906200017791906200017b565b5b50565b5b80821115620001965760008160009055506001016200017c565b5090565b6000604051905090565b600080fd5b600080fd5b6000819050919050565b620001c381620001ae565b8114620001cf57600080fd5b50565b600081519050620001e381620001b8565b92915050565b600080fd5b6000601f19601f8301169050919050565b7f4e487b7100000000000000000000000000000000000000000000000000000000600052604160045260246000fd5b6200023982620001ee565b810181811067ffffffffffffffff821117156200025b576200025a620001ff565b5b80604052505050565b6000620002706200019a565b90506200027e82826200022e565b919050565b600067ffffffffffffffff821115620002a157620002a0620001ff565b5b602082029050602081019050919050565b600080fd5b600080fd5b600067ffffffffffffffff821115620002da57620002d9620001ff565b5b620002e582620001ee565b9050602081019050919050565b60005b8381101562000312578082015181840152602081019050620002f5565b60008484015250505050565b6000620003356200032f84620002bc565b62000264565b905082815260208101848484011115620003545762000353620002b7565b5b62000361848285620002f2565b509392505050565b600082601f830112620003815762000380620001e9565b5b8151620003938482602086016200031e565b91505092915050565b6000620003b3620003ad8462000283565b62000264565b90508083825260208201905060208402830185811115620003d957620003d8620002b2565b5b835b818110156200042757805167ffffffffffffffff811115620004025762000401620001e9565b5b80860162000411898262000369565b85526020850194505050602081019050620003db565b5050509392505050565b600082601f830112620004495762000448620001e9565b5b81516200045b8482602086016200039c565b91505092915050565b600080604083850312156200047e576200047d620001a4565b5b60006200048e85828601620001d2565b925050602083015167ffffffffffffffff811115620004b257620004b1620001a9565b5b620004c08582860162000431565b9150509250929050565b600081519050919050565b7f4e487b7100000000000000000000000000000000000000000000000000000000600052602260045260246000fd5b600060028204905060018216806200051d57607f821691505b602082108103620005335762000532620004d5565b5b50919050565b60008190508160005260206000209050919050565b60006020601f8301049050919050565b600082821b905092915050565b6000600883026200059d7fffffffffffffffffffffffffffffffffffffffffffffffffffffffffffffffff826200055e565b620005a986836200055e565b95508019841693508086168417925050509392505050565b6000819050919050565b6000620005ec620005e6620005e084620001ae565b620005c1565b620001ae565b9050919050565b6000819050919050565b6200060883620005cb565b620006206200061782620005f3565b8484546200056b565b825550505050565b600090565b6200063762000628565b62000644818484620005fd565b505050565b5b818110156200066c57620006606000826200062d565b6001810190506200064a565b5050565b601f821115620006bb57620006858162000539565b62000690846200054e565b81016020851015620006a0578190505b620006b8620006af856200054e565b83018262000649565b50505b505050565b600082821c905092915050565b6000620006e060001984600802620006c0565b1980831691505092915050565b6000620006fb8383620006cd565b9150826002028217905092915050565b6200071682620004ca565b67ffffffffffffffff811115620007325762000731620001ff565b5b6200073e825462000504565b6200074b82828562000670565b600060209050601f8311600181146200078357600084156200076e578287015190505b6200077a8582620006ed565b865550620007ea565b601f198416620007938662000539565b60005b82811015620007bd5784890151825560018201915060208501945060208101905062000796565b86831015620007dd5784890151620007d9601f891682620006cd565b8355505b6001600288020188555050505b505050505050565b61187a80620008026000396000f3fe608060405234801561001057600080fd5b50600436106101005760003560e01c80634717f97c1161009757806395d89b411161006657806395d89b41146102b3578063a9059cbb146102d1578063ce7ea16114610301578063fc36e15b1461031f57610100565b80634717f97c146102175780635216509a1461023557806370a082311461025357806376e5908a1461028357610100565b806323b872dd116100d357806323b872dd1461018f5780632ccb0d1e146101bf578063313ce567146101c95780633477ee2e146101e757610100565b806306a49fce1461010557806306fdde031461012357806318160ddd146101415780631b0c27da1461015f575b600080fd5b61010d61034f565b60405161011a919061108d565b60405180910390f35b61012b610428565b60405161013891906110f9565b60405180910390f35b610149610461565b6040516101569190611134565b60405180910390f35b6101796004803603810190610174919061118f565b61046b565b6040516101869190611134565b60405180910390f35b6101a960048036038101906101a4919061121a565b61048f565b6040516101b69190611288565b60405180910390f35b6101c761080f565b005b6101d16108ae565b6040516101de91906112bf565b60405180910390f35b61020160048036038101906101fc919061118f565b6108b3565b60405161020e91906110f9565b60405180910390f35b61021f61095f565b60405161022c9190611398565b60405180910390f35b61023d6109b7565b60405161024a9190611134565b60405180910390f35b61026d600480360381019061026891906113ba565b6109bd565b60405161027a9190611134565b60405180910390f35b61029d600480360381019061029891906113ba565b610a06565b6040516102aa9190611134565b60405180910390f35b6102bb610a4f565b6040516102c891906110f9565b60405180910390f35b6102eb60048036038101906102e691906113e7565b610a88565b6040516102f89190611288565b60405180910390f35b610309610c6f565b6040516103169190611134565b60405180910390f35b6103396004803603810190610334919061155c565b610c74565b6040516103469190611288565b60405180910390f35b60606002805480602002602001604051908101604052809291908181526020016000905b8282101561041f578382906000526020600020018054610392906115d4565b80601f01602080910402602001604051908101604052809291908181526020018280546103be906115d4565b801561040b5780601f106103e05761010080835404028352916020019161040b565b820191906000526020600020905b8154815290600101906020018083116103ee57829003601f168201915b505050505081526020019060010190610373565b50505050905090565b6040518060400160405280600b81526020017f566f74696e67426173696300000000000000000000000000000000000000000081525081565b6000600754905090565b6000818154811061047b57600080fd5b906000526020600020016000915090505481565b6000600360008573ffffffffffffffffffffffffffffffffffffffff1673ffffffffffffffffffffffffffffffffffffffff168152602001908152602001600020548211156104dd57600080fd5b600660008573ffffffffffffffffffffffffffffffffffffffff1673ffffffffffffffffffffffffffffffffffffffff16815260200190815260200160002060003373ffffffffffffffffffffffffffffffffffffffff1673ffffffffffffffffffffffffffffffffffffffff1681526020019081526020016000205482111561056657600080fd5b6105b882600360008773ffffffffffffffffffffffffffffffffffffffff1673ffffffffffffffffffffffffffffffffffffffff16815260200190815260200160002054610e5c90919063ffffffff16565b600360008673ffffffffffffffffffffffffffffffffffffffff1673ffffffffffffffffffffffffffffffffffffffff1681526020019081526020016000208190555061068a82600660008773ffffffffffffffffffffffffffffffffffffffff1673ffffffffffffffffffffffffffffffffffffffff16815260200190815260200160002060003373ffffffffffffffffffffffffffffffffffffffff1673ffffffffffffffffffffffffffffffffffffffff16815260200190815260200160002054610e5c90919063ffffffff16565b600660008673ffffffffffffffffffffffffffffffffffffffff1673ffffffffffffffffffffffffffffffffffffffff16815260200190815260200160002060003373ffffffffffffffffffffffffffffffffffffffff1673ffffffffffffffffffffffffffffffffffffffff1681526020019081526020016000208190555061075c82600360008673ffffffffffffffffffffffffffffffffffffffff1673ffffffffffffffffffffffffffffffffffffffff16815260200190815260200160002054610e8390919063ffffffff16565b600360008573ffffffffffffffffffffffffffffffffffffffff1673ffffffffffffffffffffffffffffffffffffffff168152602001908152602001600020819055508273ffffffffffffffffffffffffffffffffffffffff168473ffffffffffffffffffffffffffffffffffffffff167fddf252ad1be2c89b69c2b068fc378daa952ba7f163c4a11628f55a4df523b3ef846040516107fc9190611134565b60405180910390a3600190509392505050565b610817610eaf565b60005b60028054905081101561089857600060056002838154811061083f5761083e611605565b5b9060005260206000200160405161085691906116d7565b90815260200160405180910390205490508083836003811061087b5761087a611605565b5b6020020181815250505080806108909061171d565b91505061081a565b508060009060036108aa929190610ed1565b5050565b601281565b600281815481106108c357600080fd5b9060005260206000200160009150905080546108de906115d4565b80601f016020809104026020016040519081016040528092919081815260200182805461090a906115d4565b80156109575780601f1061092c57610100808354040283529160200191610957565b820191906000526020600020905b81548152906001019060200180831161093a57829003601f168201915b505050505081565b606060008054806020026020016040519081016040528092919081815260200182805480156109ad57602002820191906000526020600020905b815481526020019060010190808311610999575b5050505050905090565b60015481565b6000600360008373ffffffffffffffffffffffffffffffffffffffff1673ffffffffffffffffffffffffffffffffffffffff168152602001908152602001600020549050919050565b6000600460008373ffffffffffffffffffffffffffffffffffffffff1673ffffffffffffffffffffffffffffffffffffffff168152602001908152602001600020549050919050565b6040518060400160405280600381526020017f56544b000000000000000000000000000000000000000000000000000000000081525081565b6000600360003373ffffffffffffffffffffffffffffffffffffffff1673ffffffffffffffffffffffffffffffffffffffff16815260200190815260200160002054821115610ad657600080fd5b610b2882600360003373ffffffffffffffffffffffffffffffffffffffff1673ffffffffffffffffffffffffffffffffffffffff16815260200190815260200160002054610e5c90919063ffffffff16565b600360003373ffffffffffffffffffffffffffffffffffffffff1673ffffffffffffffffffffffffffffffffffffffff16815260200190815260200160002081905550610bbd82600360008673ffffffffffffffffffffffffffffffffffffffff1673ffffffffffffffffffffffffffffffffffffffff16815260200190815260200160002054610e8390919063ffffffff16565b600360008573ffffffffffffffffffffffffffffffffffffffff1673ffffffffffffffffffffffffffffffffffffffff168152602001908152602001600020819055508273ffffffffffffffffffffffffffffffffffffffff163373ffffffffffffffffffffffffffffffffffffffff167fddf252ad1be2c89b69c2b068fc378daa952ba7f163c4a11628f55a4df523b3ef84604051610c5d9190611134565b60405180910390a36001905092915050565b600081565b6000600460003373ffffffffffffffffffffffffffffffffffffffff1673ffffffffffffffffffffffffffffffffffffffff16815260200190815260200160002054600360003373ffffffffffffffffffffffffffffffffffffffff1673ffffffffffffffffffffffffffffffffffffffff16815260200190815260200160002054118015610d4357506000600360003373ffffffffffffffffffffffffffffffffffffffff1673ffffffffffffffffffffffffffffffffffffffff1681526020019081526020016000205414155b610d4c57600080fd5b6001600460003373ffffffffffffffffffffffffffffffffffffffff1673ffffffffffffffffffffffffffffffffffffffff168152602001908152602001600020541015610e53576001600460003373ffffffffffffffffffffffffffffffffffffffff1673ffffffffffffffffffffffffffffffffffffffff168152602001908152602001600020819055506001600583604051610deb9190611796565b90815260200160405180910390206000828254610e0891906117ad565b925050819055503373ffffffffffffffffffffffffffffffffffffffff167ff5b08346e1e6b0b55d07ce94e81fcb198d47fbbecfea3b9a476f454c86761ec460405160405180910390a25b60019050919050565b600082821115610e6f57610e6e6117e1565b5b8183610e7b9190611810565b905092915050565b6000808284610e9291906117ad565b905083811015610ea557610ea46117e1565b5b8091505092915050565b6040518060600160405280600390602082028036833780820191505090505090565b828054828255906000526020600020908101928215610f0d579160200282015b82811115610f0c578251825591602001919060010190610ef1565b5b509050610f1a9190610f1e565b5090565b5b80821115610f37576000816000905550600101610f1f565b5090565b600081519050919050565b600082825260208201905092915050565b6000819050602082019050919050565b600081519050919050565b600082825260208201905092915050565b60005b83811015610fa1578082015181840152602081019050610f86565b60008484015250505050565b6000601f19601f8301169050919050565b6000610fc982610f67565b610fd38185610f72565b9350610fe3818560208601610f83565b610fec81610fad565b840191505092915050565b60006110038383610fbe565b905092915050565b6000602082019050919050565b600061102382610f3b565b61102d8185610f46565b93508360208202850161103f85610f57565b8060005b8581101561107b578484038952815161105c8582610ff7565b94506110678361100b565b925060208a01995050600181019050611043565b50829750879550505050505092915050565b600060208201905081810360008301526110a78184611018565b905092915050565b600082825260208201905092915050565b60006110cb82610f67565b6110d581856110af565b93506110e5818560208601610f83565b6110ee81610fad565b840191505092915050565b6000602082019050818103600083015261111381846110c0565b905092915050565b6000819050919050565b61112e8161111b565b82525050565b60006020820190506111496000830184611125565b92915050565b6000604051905090565b600080fd5b600080fd5b61116c8161111b565b811461117757600080fd5b50565b60008135905061118981611163565b92915050565b6000602082840312156111a5576111a4611159565b5b60006111b38482850161117a565b91505092915050565b600073ffffffffffffffffffffffffffffffffffffffff82169050919050565b60006111e7826111bc565b9050919050565b6111f7816111dc565b811461120257600080fd5b50565b600081359050611214816111ee565b92915050565b60008060006060848603121561123357611232611159565b5b600061124186828701611205565b935050602061125286828701611205565b92505060406112638682870161117a565b9150509250925092565b60008115159050919050565b6112828161126d565b82525050565b600060208201905061129d6000830184611279565b92915050565b600060ff82169050919050565b6112b9816112a3565b82525050565b60006020820190506112d460008301846112b0565b92915050565b600081519050919050565b600082825260208201905092915050565b6000819050602082019050919050565b61130f8161111b565b82525050565b60006113218383611306565b60208301905092915050565b6000602082019050919050565b6000611345826112da565b61134f81856112e5565b935061135a836112f6565b8060005b8381101561138b5781516113728882611315565b975061137d8361132d565b92505060018101905061135e565b5085935050505092915050565b600060208201905081810360008301526113b2818461133a565b905092915050565b6000602082840312156113d0576113cf611159565b5b60006113de84828501611205565b91505092915050565b600080604083850312156113fe576113fd611159565b5b600061140c85828601611205565b925050602061141d8582860161117a565b9150509250929050565b600080fd5b600080fd5b7f4e487b7100000000000000000000000000000000000000000000000000000000600052604160045260246000fd5b61146982610fad565b810181811067ffffffffffffffff8211171561148857611487611431565b5b80604052505050565b600061149b61114f565b90506114a78282611460565b919050565b600067ffffffffffffffff8211156114c7576114c6611431565b5b6114d082610fad565b9050602081019050919050565b82818337600083830152505050565b60006114ff6114fa846114ac565b611491565b90508281526020810184848401111561151b5761151a61142c565b5b6115268482856114dd565b509392505050565b600082601f83011261154357611542611427565b5b81356115538482602086016114ec565b91505092915050565b60006020828403121561157257611571611159565b5b600082013567ffffffffffffffff8111156115905761158f61115e565b5b61159c8482850161152e565b91505092915050565b7f4e487b7100000000000000000000000000000000000000000000000000000000600052602260045260246000fd5b600060028204905060018216806115ec57607f821691505b6020821081036115ff576115fe6115a5565b5b50919050565b7f4e487b7100000000000000000000000000000000000000000000000000000000600052603260045260246000fd5b600081905092915050565b60008190508160005260206000209050919050565b60008154611661816115d4565b61166b8186611634565b94506001821660008114611686576001811461169b576116ce565b60ff19831686528115158202860193506116ce565b6116a48561163f565b60005b838110156116c6578154818901526001820191506020810190506116a7565b838801955050505b50505092915050565b60006116e38284611654565b915081905092915050565b7f4e487b7100000000000000000000000000000000000000000000000000000000600052601160045260246000fd5b60006117288261111b565b91507fffffffffffffffffffffffffffffffffffffffffffffffffffffffffffffffff820361175a576117596116ee565b5b600182019050919050565b600061177082610f67565b61177a8185611634565b935061178a818560208601610f83565b80840191505092915050565b60006117a28284611765565b915081905092915050565b60006117b88261111b565b91506117c38361111b565b92508282019050808211156117db576117da6116ee565b5b92915050565b7f4e487b7100000000000000000000000000000000000000000000000000000000600052600160045260246000fd5b600061181b8261111b565b91506118268361111b565b925082820390508181111561183e5761183d6116ee565b5b9291505056fea264697066735822122002a774cc9040d5369a025c7ecc79c657d10910d0abb46017619e9c165c0088d664736f6c63430008110033",
  "linkReferences": {},
  "deployedLinkReferences": {}
}