{
  "_format": "hh-sol-artifact-1",
  "contractName": "VotingTokenERC20",
  "sourceName": "contracts/VotingTokenERC20.sol",
  "abi": [
    {
      "inputs": [
        {
          "internalType": "uint256",
          "name": "total",
          "type": "uint256"
        },
        {
          "internalType": "string[]",
          "name": "_candidates",
          "type": "string[]"
        }
      ],
      "stateMutability": "nonpayable",
      "type": "constructor"
    },
    {
      "anonymous": false,
      "inputs": [
        {
          "indexed": true,
          "internalType": "address",
          "name": "tokenOwner",
          "type": "address"
        },
        {
          "indexed": true,
          "internalType": "address",
          "name": "spender",
          "type": "address"
        },
        {
          "indexed": false,
          "internalType": "uint256",
          "name": "tokens",
          "type": "uint256"
        }
      ],
      "name": "Approval",
      "type": "event"
    },
    {
      "anonymous": false,
      "inputs": [
        {
          "indexed": true,
          "internalType": "address",
          "name": "from",
          "type": "address"
        },
        {
          "indexed": true,
          "internalType": "address",
          "name": "to",
          "type": "address"
        },
        {
          "indexed": false,
          "internalType": "uint256",
          "name": "tokens",
          "type": "uint256"
        }
      ],
      "name": "Transfer",
      "type": "event"
    },
    {
      "anonymous": false,
      "inputs": [
        {
          "indexed": true,
          "internalType": "address",
          "name": "from",
          "type": "address"
        }
      ],
      "name": "Vote",
      "type": "event"
    },
    {
      "inputs": [
        {
          "internalType": "address",
          "name": "owner",
          "type": "address"
        },
        {
          "internalType": "address",
          "name": "delegate",
          "type": "address"
        }
      ],
      "name": "allowance",
      "outputs": [
        {
          "internalType": "uint256",
          "name": "",
          "type": "uint256"
        }
      ],
      "stateMutability": "view",
      "type": "function"
    },
    {
      "inputs": [
        {
          "internalType": "address",
          "name": "delegate",
          "type": "address"
        },
        {
          "internalType": "uint256",
          "name": "numTokens",
          "type": "uint256"
        }
      ],
      "name": "approve",
      "outputs": [
        {
          "internalType": "bool",
          "name": "",
          "type": "bool"
        }
      ],
      "stateMutability": "nonpayable",
      "type": "function"
    },
    {
      "inputs": [
        {
          "internalType": "address",
          "name": "tokenOwner",
          "type": "address"
        }
      ],
      "name": "balanceOf",
      "outputs": [
        {
          "internalType": "uint256",
          "name": "",
          "type": "uint256"
        }
      ],
      "stateMutability": "view",
      "type": "function"
    },
    {
      "inputs": [],
      "name": "calculateResults",
      "outputs": [],
      "stateMutability": "nonpayable",
      "type": "function"
    },
    {
      "inputs": [
        {
          "internalType": "uint256",
          "name": "",
          "type": "uint256"
        }
      ],
      "name": "candidates",
      "outputs": [
        {
          "internalType": "string",
          "name": "",
          "type": "string"
        }
      ],
      "stateMutability": "view",
      "type": "function"
    },
    {
      "inputs": [
        {
          "internalType": "address",
          "name": "tokenOwner",
          "type": "address"
        }
      ],
      "name": "castedVotes",
      "outputs": [
        {
          "internalType": "uint256",
          "name": "",
          "type": "uint256"
        }
      ],
      "stateMutability": "view",
      "type": "function"
    },
    {
      "inputs": [],
      "name": "decimals",
      "outputs": [
        {
          "internalType": "uint8",
          "name": "",
          "type": "uint8"
        }
      ],
      "stateMutability": "view",
      "type": "function"
    },
    {
      "inputs": [],
      "name": "electionEnd",
      "outputs": [
        {
          "internalType": "uint256",
          "name": "",
          "type": "uint256"
        }
      ],
      "stateMutability": "view",
      "type": "function"
    },
    {
      "inputs": [],
      "name": "getCandidates",
      "outputs": [
        {
          "internalType": "string[]",
          "name": "",
          "type": "string[]"
        }
      ],
      "stateMutability": "view",
      "type": "function"
    },
    {
      "inputs": [],
      "name": "getResults",
      "outputs": [
        {
          "internalType": "uint256[]",
          "name": "",
          "type": "uint256[]"
        }
      ],
      "stateMutability": "view",
      "type": "function"
    },
    {
      "inputs": [],
      "name": "name",
      "outputs": [
        {
          "internalType": "string",
          "name": "",
          "type": "string"
        }
      ],
      "stateMutability": "view",
      "type": "function"
    },
    {
      "inputs": [],
      "name": "numCandidates",
      "outputs": [
        {
          "internalType": "uint256",
          "name": "",
          "type": "uint256"
        }
      ],
      "stateMutability": "view",
      "type": "function"
    },
    {
      "inputs": [
        {
          "internalType": "uint256",
          "name": "",
          "type": "uint256"
        }
      ],
      "name": "results",
      "outputs": [
        {
          "internalType": "uint256",
          "name": "",
          "type": "uint256"
        }
      ],
      "stateMutability": "view",
      "type": "function"
    },
    {
      "inputs": [],
      "name": "symbol",
      "outputs": [
        {
          "internalType": "string",
          "name": "",
          "type": "string"
        }
      ],
      "stateMutability": "view",
      "type": "function"
    },
    {
      "inputs": [
        {
          "internalType": "uint256",
          "name": "i",
          "type": "uint256"
        }
      ],
      "name": "test",
      "outputs": [
        {
          "internalType": "string",
          "name": "",
          "type": "string"
        }
      ],
      "stateMutability": "view",
      "type": "function"
    },
    {
      "inputs": [
        {
          "internalType": "uint256",
          "name": "i",
          "type": "uint256"
        }
      ],
      "name": "test2",
      "outputs": [
        {
          "internalType": "uint256",
          "name": "",
          "type": "uint256"
        }
      ],
      "stateMutability": "view",
      "type": "function"
    },
    {
      "inputs": [],
      "name": "totalSupply",
      "outputs": [
        {
          "internalType": "uint256",
          "name": "",
          "type": "uint256"
        }
      ],
      "stateMutability": "view",
      "type": "function"
    },
    {
      "inputs": [
        {
          "internalType": "address",
          "name": "receiver",
          "type": "address"
        },
        {
          "internalType": "uint256",
          "name": "numTokens",
          "type": "uint256"
        }
      ],
      "name": "transfer",
      "outputs": [
        {
          "internalType": "bool",
          "name": "",
          "type": "bool"
        }
      ],
      "stateMutability": "nonpayable",
      "type": "function"
    },
    {
      "inputs": [
        {
          "internalType": "address",
          "name": "owner",
          "type": "address"
        },
        {
          "internalType": "address",
          "name": "buyer",
          "type": "address"
        },
        {
          "internalType": "uint256",
          "name": "numTokens",
          "type": "uint256"
        }
      ],
      "name": "transferFrom",
      "outputs": [
        {
          "internalType": "bool",
          "name": "",
          "type": "bool"
        }
      ],
      "stateMutability": "nonpayable",
      "type": "function"
    },
    {
      "inputs": [
        {
          "internalType": "string",
          "name": "candidateName",
          "type": "string"
        }
      ],
      "name": "vote",
      "outputs": [
        {
          "internalType": "bool",
          "name": "",
          "type": "bool"
        }
      ],
      "stateMutability": "nonpayable",
      "type": "function"
    }
  ],
  "bytecode": "0x60806040523480156200001157600080fd5b506040516200241638038062002416833981810160405281019062000037919062000464565b81600781905550600754600360003373ffffffffffffffffffffffffffffffffffffffff1673ffffffffffffffffffffffffffffffffffffffff1681526020019081526020016000208190555080600290805190602001906200009c929190620000ad565b5080516001819055505050620007f2565b828054828255906000526020600020908101928215620000fa579160200282015b82811115620000f9578251829081620000e891906200070b565b5091602001919060010190620000ce565b5b5090506200010991906200010d565b5090565b5b8082111562000131576000818162000127919062000135565b506001016200010e565b5090565b508054620001439062000504565b6000825580601f1062000157575062000178565b601f0160209004906000526020600020908101906200017791906200017b565b5b50565b5b80821115620001965760008160009055506001016200017c565b5090565b6000604051905090565b600080fd5b600080fd5b6000819050919050565b620001c381620001ae565b8114620001cf57600080fd5b50565b600081519050620001e381620001b8565b92915050565b600080fd5b6000601f19601f8301169050919050565b7f4e487b7100000000000000000000000000000000000000000000000000000000600052604160045260246000fd5b6200023982620001ee565b810181811067ffffffffffffffff821117156200025b576200025a620001ff565b5b80604052505050565b6000620002706200019a565b90506200027e82826200022e565b919050565b600067ffffffffffffffff821115620002a157620002a0620001ff565b5b602082029050602081019050919050565b600080fd5b600080fd5b600067ffffffffffffffff821115620002da57620002d9620001ff565b5b620002e582620001ee565b9050602081019050919050565b60005b8381101562000312578082015181840152602081019050620002f5565b60008484015250505050565b6000620003356200032f84620002bc565b62000264565b905082815260208101848484011115620003545762000353620002b7565b5b62000361848285620002f2565b509392505050565b600082601f830112620003815762000380620001e9565b5b8151620003938482602086016200031e565b91505092915050565b6000620003b3620003ad8462000283565b62000264565b90508083825260208201905060208402830185811115620003d957620003d8620002b2565b5b835b818110156200042757805167ffffffffffffffff811115620004025762000401620001e9565b5b80860162000411898262000369565b85526020850194505050602081019050620003db565b5050509392505050565b600082601f830112620004495762000448620001e9565b5b81516200045b8482602086016200039c565b91505092915050565b600080604083850312156200047e576200047d620001a4565b5b60006200048e85828601620001d2565b925050602083015167ffffffffffffffff811115620004b257620004b1620001a9565b5b620004c08582860162000431565b9150509250929050565b600081519050919050565b7f4e487b7100000000000000000000000000000000000000000000000000000000600052602260045260246000fd5b600060028204905060018216806200051d57607f821691505b602082108103620005335762000532620004d5565b5b50919050565b60008190508160005260206000209050919050565b60006020601f8301049050919050565b600082821b905092915050565b6000600883026200059d7fffffffffffffffffffffffffffffffffffffffffffffffffffffffffffffffff826200055e565b620005a986836200055e565b95508019841693508086168417925050509392505050565b6000819050919050565b6000620005ec620005e6620005e084620001ae565b620005c1565b620001ae565b9050919050565b6000819050919050565b6200060883620005cb565b620006206200061782620005f3565b8484546200056b565b825550505050565b600090565b6200063762000628565b62000644818484620005fd565b505050565b5b818110156200066c57620006606000826200062d565b6001810190506200064a565b5050565b601f821115620006bb57620006858162000539565b62000690846200054e565b81016020851015620006a0578190505b620006b8620006af856200054e565b83018262000649565b50505b505050565b600082821c905092915050565b6000620006e060001984600802620006c0565b1980831691505092915050565b6000620006fb8383620006cd565b9150826002028217905092915050565b6200071682620004ca565b67ffffffffffffffff811115620007325762000731620001ff565b5b6200073e825462000504565b6200074b82828562000670565b600060209050601f8311600181146200078357600084156200076e578287015190505b6200077a8582620006ed565b865550620007ea565b601f198416620007938662000539565b60005b82811015620007bd5784890151825560018201915060208501945060208101905062000796565b86831015620007dd5784890151620007d9601f891682620006cd565b8355505b6001600288020188555050505b505050505050565b611c1480620008026000396000f3fe608060405234801561001057600080fd5b506004361061012c5760003560e01c80634717f97c116100ad578063a9059cbb11610071578063a9059cbb1461035d578063caf446831461038d578063ce7ea161146103bd578063dd62ed3e146103db578063fc36e15b1461040b5761012c565b80634717f97c146102a35780635216509a146102c157806370a08231146102df57806376e5908a1461030f57806395d89b411461033f5761012c565b806323b872dd116100f457806323b872dd146101eb57806329e99f071461021b5780632ccb0d1e1461024b578063313ce567146102555780633477ee2e146102735761012c565b806306a49fce1461013157806306fdde031461014f578063095ea7b31461016d57806318160ddd1461019d5780631b0c27da146101bb575b600080fd5b61013961043b565b60405161014691906113e7565b60405180910390f35b610157610514565b6040516101649190611453565b60405180910390f35b6101876004803603810190610182919061151d565b61054d565b6040516101949190611578565b60405180910390f35b6101a561063f565b6040516101b291906115a2565b60405180910390f35b6101d560048036038101906101d091906115bd565b610649565b6040516101e291906115a2565b60405180910390f35b610205600480360381019061020091906115ea565b61066d565b6040516102129190611578565b60405180910390f35b610235600480360381019061023091906115bd565b6109ed565b6040516102429190611453565b60405180910390f35b610253610a9d565b005b61025d610b3c565b60405161026a9190611659565b60405180910390f35b61028d600480360381019061028891906115bd565b610b41565b60405161029a9190611453565b60405180910390f35b6102ab610bed565b6040516102b89190611732565b60405180910390f35b6102c9610c45565b6040516102d691906115a2565b60405180910390f35b6102f960048036038101906102f49190611754565b610c4b565b60405161030691906115a2565b60405180910390f35b61032960048036038101906103249190611754565b610c94565b60405161033691906115a2565b60405180910390f35b610347610cdd565b6040516103549190611453565b60405180910390f35b6103776004803603810190610372919061151d565b610d16565b6040516103849190611578565b60405180910390f35b6103a760048036038101906103a291906115bd565b610efd565b6040516103b491906115a2565b60405180910390f35b6103c5610f42565b6040516103d291906115a2565b60405180910390f35b6103f560048036038101906103f09190611781565b610f47565b60405161040291906115a2565b60405180910390f35b610425600480360381019061042091906118f6565b610fce565b6040516104329190611578565b60405180910390f35b60606002805480602002602001604051908101604052809291908181526020016000905b8282101561050b57838290600052602060002001805461047e9061196e565b80601f01602080910402602001604051908101604052809291908181526020018280546104aa9061196e565b80156104f75780601f106104cc576101008083540402835291602001916104f7565b820191906000526020600020905b8154815290600101906020018083116104da57829003601f168201915b50505050508152602001906001019061045f565b50505050905090565b6040518060400160405280600b81526020017f566f74696e67426173696300000000000000000000000000000000000000000081525081565b600081600660003373ffffffffffffffffffffffffffffffffffffffff1673ffffffffffffffffffffffffffffffffffffffff16815260200190815260200160002060008573ffffffffffffffffffffffffffffffffffffffff1673ffffffffffffffffffffffffffffffffffffffff168152602001908152602001600020819055508273ffffffffffffffffffffffffffffffffffffffff163373ffffffffffffffffffffffffffffffffffffffff167f8c5be1e5ebec7d5bd14f71427d1e84f3dd0314c0f7b2291e5b200ac8c7c3b9258460405161062d91906115a2565b60405180910390a36001905092915050565b6000600754905090565b6000818154811061065957600080fd5b906000526020600020016000915090505481565b6000600360008573ffffffffffffffffffffffffffffffffffffffff1673ffffffffffffffffffffffffffffffffffffffff168152602001908152602001600020548211156106bb57600080fd5b600660008573ffffffffffffffffffffffffffffffffffffffff1673ffffffffffffffffffffffffffffffffffffffff16815260200190815260200160002060003373ffffffffffffffffffffffffffffffffffffffff1673ffffffffffffffffffffffffffffffffffffffff1681526020019081526020016000205482111561074457600080fd5b61079682600360008773ffffffffffffffffffffffffffffffffffffffff1673ffffffffffffffffffffffffffffffffffffffff168152602001908152602001600020546111b690919063ffffffff16565b600360008673ffffffffffffffffffffffffffffffffffffffff1673ffffffffffffffffffffffffffffffffffffffff1681526020019081526020016000208190555061086882600660008773ffffffffffffffffffffffffffffffffffffffff1673ffffffffffffffffffffffffffffffffffffffff16815260200190815260200160002060003373ffffffffffffffffffffffffffffffffffffffff1673ffffffffffffffffffffffffffffffffffffffff168152602001908152602001600020546111b690919063ffffffff16565b600660008673ffffffffffffffffffffffffffffffffffffffff1673ffffffffffffffffffffffffffffffffffffffff16815260200190815260200160002060003373ffffffffffffffffffffffffffffffffffffffff1673ffffffffffffffffffffffffffffffffffffffff1681526020019081526020016000208190555061093a82600360008673ffffffffffffffffffffffffffffffffffffffff1673ffffffffffffffffffffffffffffffffffffffff168152602001908152602001600020546111dd90919063ffffffff16565b600360008573ffffffffffffffffffffffffffffffffffffffff1673ffffffffffffffffffffffffffffffffffffffff168152602001908152602001600020819055508273ffffffffffffffffffffffffffffffffffffffff168473ffffffffffffffffffffffffffffffffffffffff167fddf252ad1be2c89b69c2b068fc378daa952ba7f163c4a11628f55a4df523b3ef846040516109da91906115a2565b60405180910390a3600190509392505050565b606060028281548110610a0357610a0261199f565b5b906000526020600020018054610a189061196e565b80601f0160208091040260200160405190810160405280929190818152602001828054610a449061196e565b8015610a915780601f10610a6657610100808354040283529160200191610a91565b820191906000526020600020905b815481529060010190602001808311610a7457829003601f168201915b50505050509050919050565b610aa5611209565b60005b600280549050811015610b26576000600560028381548110610acd57610acc61199f565b5b90600052602060002001604051610ae49190611a71565b908152602001604051809103902054905080838360038110610b0957610b0861199f565b5b602002018181525050508080610b1e90611ab7565b915050610aa8565b50806000906003610b3892919061122b565b5050565b601281565b60028181548110610b5157600080fd5b906000526020600020016000915090508054610b6c9061196e565b80601f0160208091040260200160405190810160405280929190818152602001828054610b989061196e565b8015610be55780601f10610bba57610100808354040283529160200191610be5565b820191906000526020600020905b815481529060010190602001808311610bc857829003601f168201915b505050505081565b60606000805480602002602001604051908101604052809291908181526020018280548015610c3b57602002820191906000526020600020905b815481526020019060010190808311610c27575b5050505050905090565b60015481565b6000600360008373ffffffffffffffffffffffffffffffffffffffff1673ffffffffffffffffffffffffffffffffffffffff168152602001908152602001600020549050919050565b6000600460008373ffffffffffffffffffffffffffffffffffffffff1673ffffffffffffffffffffffffffffffffffffffff168152602001908152602001600020549050919050565b6040518060400160405280600381526020017f56544b000000000000000000000000000000000000000000000000000000000081525081565b6000600360003373ffffffffffffffffffffffffffffffffffffffff1673ffffffffffffffffffffffffffffffffffffffff16815260200190815260200160002054821115610d6457600080fd5b610db682600360003373ffffffffffffffffffffffffffffffffffffffff1673ffffffffffffffffffffffffffffffffffffffff168152602001908152602001600020546111b690919063ffffffff16565b600360003373ffffffffffffffffffffffffffffffffffffffff1673ffffffffffffffffffffffffffffffffffffffff16815260200190815260200160002081905550610e4b82600360008673ffffffffffffffffffffffffffffffffffffffff1673ffffffffffffffffffffffffffffffffffffffff168152602001908152602001600020546111dd90919063ffffffff16565b600360008573ffffffffffffffffffffffffffffffffffffffff1673ffffffffffffffffffffffffffffffffffffffff168152602001908152602001600020819055508273ffffffffffffffffffffffffffffffffffffffff163373ffffffffffffffffffffffffffffffffffffffff167fddf252ad1be2c89b69c2b068fc378daa952ba7f163c4a11628f55a4df523b3ef84604051610eeb91906115a2565b60405180910390a36001905092915050565b6000600560028381548110610f1557610f1461199f565b5b90600052602060002001604051610f2c9190611a71565b9081526020016040518091039020549050919050565b600081565b6000600660008473ffffffffffffffffffffffffffffffffffffffff1673ffffffffffffffffffffffffffffffffffffffff16815260200190815260200160002060008373ffffffffffffffffffffffffffffffffffffffff1673ffffffffffffffffffffffffffffffffffffffff16815260200190815260200160002054905092915050565b6000600460003373ffffffffffffffffffffffffffffffffffffffff1673ffffffffffffffffffffffffffffffffffffffff16815260200190815260200160002054600360003373ffffffffffffffffffffffffffffffffffffffff1673ffffffffffffffffffffffffffffffffffffffff1681526020019081526020016000205411801561109d57506000600360003373ffffffffffffffffffffffffffffffffffffffff1673ffffffffffffffffffffffffffffffffffffffff1681526020019081526020016000205414155b6110a657600080fd5b6001600460003373ffffffffffffffffffffffffffffffffffffffff1673ffffffffffffffffffffffffffffffffffffffff1681526020019081526020016000205410156111ad576001600460003373ffffffffffffffffffffffffffffffffffffffff1673ffffffffffffffffffffffffffffffffffffffff1681526020019081526020016000208190555060016005836040516111459190611b30565b908152602001604051809103902060008282546111629190611b47565b925050819055503373ffffffffffffffffffffffffffffffffffffffff167ff5b08346e1e6b0b55d07ce94e81fcb198d47fbbecfea3b9a476f454c86761ec460405160405180910390a25b60019050919050565b6000828211156111c9576111c8611b7b565b5b81836111d59190611baa565b905092915050565b60008082846111ec9190611b47565b9050838110156111ff576111fe611b7b565b5b8091505092915050565b6040518060600160405280600390602082028036833780820191505090505090565b828054828255906000526020600020908101928215611267579160200282015b8281111561126657825182559160200191906001019061124b565b5b5090506112749190611278565b5090565b5b80821115611291576000816000905550600101611279565b5090565b600081519050919050565b600082825260208201905092915050565b6000819050602082019050919050565b600081519050919050565b600082825260208201905092915050565b60005b838110156112fb5780820151818401526020810190506112e0565b60008484015250505050565b6000601f19601f8301169050919050565b6000611323826112c1565b61132d81856112cc565b935061133d8185602086016112dd565b61134681611307565b840191505092915050565b600061135d8383611318565b905092915050565b6000602082019050919050565b600061137d82611295565b61138781856112a0565b935083602082028501611399856112b1565b8060005b858110156113d557848403895281516113b68582611351565b94506113c183611365565b925060208a0199505060018101905061139d565b50829750879550505050505092915050565b600060208201905081810360008301526114018184611372565b905092915050565b600082825260208201905092915050565b6000611425826112c1565b61142f8185611409565b935061143f8185602086016112dd565b61144881611307565b840191505092915050565b6000602082019050818103600083015261146d818461141a565b905092915050565b6000604051905090565b600080fd5b600080fd5b600073ffffffffffffffffffffffffffffffffffffffff82169050919050565b60006114b482611489565b9050919050565b6114c4816114a9565b81146114cf57600080fd5b50565b6000813590506114e1816114bb565b92915050565b6000819050919050565b6114fa816114e7565b811461150557600080fd5b50565b600081359050611517816114f1565b92915050565b600080604083850312156115345761153361147f565b5b6000611542858286016114d2565b925050602061155385828601611508565b9150509250929050565b60008115159050919050565b6115728161155d565b82525050565b600060208201905061158d6000830184611569565b92915050565b61159c816114e7565b82525050565b60006020820190506115b76000830184611593565b92915050565b6000602082840312156115d3576115d261147f565b5b60006115e184828501611508565b91505092915050565b6000806000606084860312156116035761160261147f565b5b6000611611868287016114d2565b9350506020611622868287016114d2565b925050604061163386828701611508565b9150509250925092565b600060ff82169050919050565b6116538161163d565b82525050565b600060208201905061166e600083018461164a565b92915050565b600081519050919050565b600082825260208201905092915050565b6000819050602082019050919050565b6116a9816114e7565b82525050565b60006116bb83836116a0565b60208301905092915050565b6000602082019050919050565b60006116df82611674565b6116e9818561167f565b93506116f483611690565b8060005b8381101561172557815161170c88826116af565b9750611717836116c7565b9250506001810190506116f8565b5085935050505092915050565b6000602082019050818103600083015261174c81846116d4565b905092915050565b60006020828403121561176a5761176961147f565b5b6000611778848285016114d2565b91505092915050565b600080604083850312156117985761179761147f565b5b60006117a6858286016114d2565b92505060206117b7858286016114d2565b9150509250929050565b600080fd5b600080fd5b7f4e487b7100000000000000000000000000000000000000000000000000000000600052604160045260246000fd5b61180382611307565b810181811067ffffffffffffffff82111715611822576118216117cb565b5b80604052505050565b6000611835611475565b905061184182826117fa565b919050565b600067ffffffffffffffff821115611861576118606117cb565b5b61186a82611307565b9050602081019050919050565b82818337600083830152505050565b600061189961189484611846565b61182b565b9050828152602081018484840111156118b5576118b46117c6565b5b6118c0848285611877565b509392505050565b600082601f8301126118dd576118dc6117c1565b5b81356118ed848260208601611886565b91505092915050565b60006020828403121561190c5761190b61147f565b5b600082013567ffffffffffffffff81111561192a57611929611484565b5b611936848285016118c8565b91505092915050565b7f4e487b7100000000000000000000000000000000000000000000000000000000600052602260045260246000fd5b6000600282049050600182168061198657607f821691505b6020821081036119995761199861193f565b5b50919050565b7f4e487b7100000000000000000000000000000000000000000000000000000000600052603260045260246000fd5b600081905092915050565b60008190508160005260206000209050919050565b600081546119fb8161196e565b611a0581866119ce565b94506001821660008114611a205760018114611a3557611a68565b60ff1983168652811515820286019350611a68565b611a3e856119d9565b60005b83811015611a6057815481890152600182019150602081019050611a41565b838801955050505b50505092915050565b6000611a7d82846119ee565b915081905092915050565b7f4e487b7100000000000000000000000000000000000000000000000000000000600052601160045260246000fd5b6000611ac2826114e7565b91507fffffffffffffffffffffffffffffffffffffffffffffffffffffffffffffffff8203611af457611af3611a88565b5b600182019050919050565b6000611b0a826112c1565b611b1481856119ce565b9350611b248185602086016112dd565b80840191505092915050565b6000611b3c8284611aff565b915081905092915050565b6000611b52826114e7565b9150611b5d836114e7565b9250828201905080821115611b7557611b74611a88565b5b92915050565b7f4e487b7100000000000000000000000000000000000000000000000000000000600052600160045260246000fd5b6000611bb5826114e7565b9150611bc0836114e7565b9250828203905081811115611bd857611bd7611a88565b5b9291505056fea26469706673582212209d22e6bbbaaee31cfed7978e62efebfe21dc701fe179331c11d5782d3bb707bc64736f6c63430008110033",
  "linkReferences": {},
  "deployedLinkReferences": {}
}