{
  "_format": "hh-sol-artifact-1",
  "contractName": "VotingTokenERC20",
  "sourceName": "contracts/VotingTokenERC20.sol",
  "abi": [
    {
      "inputs": [
        {
          "internalType": "uint256",
          "name": "total",
          "type": "uint256"
        },
        {
          "internalType": "string[]",
          "name": "_candidates",
          "type": "string[]"
        }
      ],
      "stateMutability": "nonpayable",
      "type": "constructor"
    },
    {
      "anonymous": false,
      "inputs": [
        {
          "indexed": true,
          "internalType": "address",
          "name": "tokenOwner",
          "type": "address"
        },
        {
          "indexed": true,
          "internalType": "address",
          "name": "spender",
          "type": "address"
        },
        {
          "indexed": false,
          "internalType": "uint256",
          "name": "tokens",
          "type": "uint256"
        }
      ],
      "name": "Approval",
      "type": "event"
    },
    {
      "anonymous": false,
      "inputs": [
        {
          "indexed": true,
          "internalType": "address",
          "name": "from",
          "type": "address"
        },
        {
          "indexed": true,
          "internalType": "address",
          "name": "to",
          "type": "address"
        },
        {
          "indexed": false,
          "internalType": "uint256",
          "name": "tokens",
          "type": "uint256"
        }
      ],
      "name": "Transfer",
      "type": "event"
    },
    {
      "anonymous": false,
      "inputs": [
        {
          "indexed": true,
          "internalType": "address",
          "name": "from",
          "type": "address"
        }
      ],
      "name": "Vote",
      "type": "event"
    },
    {
      "inputs": [
        {
          "internalType": "address",
          "name": "owner",
          "type": "address"
        },
        {
          "internalType": "address",
          "name": "delegate",
          "type": "address"
        }
      ],
      "name": "allowance",
      "outputs": [
        {
          "internalType": "uint256",
          "name": "",
          "type": "uint256"
        }
      ],
      "stateMutability": "view",
      "type": "function"
    },
    {
      "inputs": [
        {
          "internalType": "address",
          "name": "delegate",
          "type": "address"
        },
        {
          "internalType": "uint256",
          "name": "numTokens",
          "type": "uint256"
        }
      ],
      "name": "approve",
      "outputs": [
        {
          "internalType": "bool",
          "name": "",
          "type": "bool"
        }
      ],
      "stateMutability": "nonpayable",
      "type": "function"
    },
    {
      "inputs": [
        {
          "internalType": "address",
          "name": "tokenOwner",
          "type": "address"
        }
      ],
      "name": "balanceOf",
      "outputs": [
        {
          "internalType": "uint256",
          "name": "",
          "type": "uint256"
        }
      ],
      "stateMutability": "view",
      "type": "function"
    },
    {
      "inputs": [
        {
          "internalType": "uint256",
          "name": "",
          "type": "uint256"
        }
      ],
      "name": "candidates",
      "outputs": [
        {
          "internalType": "string",
          "name": "",
          "type": "string"
        }
      ],
      "stateMutability": "view",
      "type": "function"
    },
    {
      "inputs": [
        {
          "internalType": "address",
          "name": "tokenOwner",
          "type": "address"
        }
      ],
      "name": "castedVotes",
      "outputs": [
        {
          "internalType": "uint256",
          "name": "",
          "type": "uint256"
        }
      ],
      "stateMutability": "view",
      "type": "function"
    },
    {
      "inputs": [],
      "name": "decimals",
      "outputs": [
        {
          "internalType": "uint8",
          "name": "",
          "type": "uint8"
        }
      ],
      "stateMutability": "view",
      "type": "function"
    },
    {
      "inputs": [],
      "name": "electionEnd",
      "outputs": [
        {
          "internalType": "uint256",
          "name": "",
          "type": "uint256"
        }
      ],
      "stateMutability": "view",
      "type": "function"
    },
    {
      "inputs": [],
      "name": "getCandidates",
      "outputs": [
        {
          "internalType": "string[]",
          "name": "",
          "type": "string[]"
        }
      ],
      "stateMutability": "view",
      "type": "function"
    },
    {
      "inputs": [],
      "name": "getResults",
      "outputs": [
        {
          "internalType": "uint256[]",
          "name": "",
          "type": "uint256[]"
        }
      ],
      "stateMutability": "view",
      "type": "function"
    },
    {
      "inputs": [],
      "name": "name",
      "outputs": [
        {
          "internalType": "string",
          "name": "",
          "type": "string"
        }
      ],
      "stateMutability": "view",
      "type": "function"
    },
    {
      "inputs": [],
      "name": "symbol",
      "outputs": [
        {
          "internalType": "string",
          "name": "",
          "type": "string"
        }
      ],
      "stateMutability": "view",
      "type": "function"
    },
    {
      "inputs": [
        {
          "internalType": "uint256",
          "name": "i",
          "type": "uint256"
        }
      ],
      "name": "test",
      "outputs": [
        {
          "internalType": "string",
          "name": "",
          "type": "string"
        }
      ],
      "stateMutability": "view",
      "type": "function"
    },
    {
      "inputs": [
        {
          "internalType": "uint256",
          "name": "i",
          "type": "uint256"
        }
      ],
      "name": "test2",
      "outputs": [
        {
          "internalType": "uint256",
          "name": "",
          "type": "uint256"
        }
      ],
      "stateMutability": "view",
      "type": "function"
    },
    {
      "inputs": [],
      "name": "totalSupply",
      "outputs": [
        {
          "internalType": "uint256",
          "name": "",
          "type": "uint256"
        }
      ],
      "stateMutability": "view",
      "type": "function"
    },
    {
      "inputs": [
        {
          "internalType": "address",
          "name": "receiver",
          "type": "address"
        },
        {
          "internalType": "uint256",
          "name": "numTokens",
          "type": "uint256"
        }
      ],
      "name": "transfer",
      "outputs": [
        {
          "internalType": "bool",
          "name": "",
          "type": "bool"
        }
      ],
      "stateMutability": "nonpayable",
      "type": "function"
    },
    {
      "inputs": [
        {
          "internalType": "address",
          "name": "owner",
          "type": "address"
        },
        {
          "internalType": "address",
          "name": "buyer",
          "type": "address"
        },
        {
          "internalType": "uint256",
          "name": "numTokens",
          "type": "uint256"
        }
      ],
      "name": "transferFrom",
      "outputs": [
        {
          "internalType": "bool",
          "name": "",
          "type": "bool"
        }
      ],
      "stateMutability": "nonpayable",
      "type": "function"
    },
    {
      "inputs": [
        {
          "internalType": "string",
          "name": "candidateName",
          "type": "string"
        }
      ],
      "name": "vote",
      "outputs": [
        {
          "internalType": "bool",
          "name": "",
          "type": "bool"
        }
      ],
      "stateMutability": "nonpayable",
      "type": "function"
    }
  ],
  "bytecode": "0x60806040523480156200001157600080fd5b50604051620022773803806200227783398181016040528101906200003791906200045c565b81600581905550600554600160003373ffffffffffffffffffffffffffffffffffffffff1673ffffffffffffffffffffffffffffffffffffffff1681526020019081526020016000208190555080600090805190602001906200009c929190620000a5565b505050620007ea565b828054828255906000526020600020908101928215620000f2579160200282015b82811115620000f1578251829081620000e0919062000703565b5091602001919060010190620000c6565b5b50905062000101919062000105565b5090565b5b808211156200012957600081816200011f91906200012d565b5060010162000106565b5090565b5080546200013b90620004fc565b6000825580601f106200014f575062000170565b601f0160209004906000526020600020908101906200016f919062000173565b5b50565b5b808211156200018e57600081600090555060010162000174565b5090565b6000604051905090565b600080fd5b600080fd5b6000819050919050565b620001bb81620001a6565b8114620001c757600080fd5b50565b600081519050620001db81620001b0565b92915050565b600080fd5b6000601f19601f8301169050919050565b7f4e487b7100000000000000000000000000000000000000000000000000000000600052604160045260246000fd5b6200023182620001e6565b810181811067ffffffffffffffff82111715620002535762000252620001f7565b5b80604052505050565b60006200026862000192565b905062000276828262000226565b919050565b600067ffffffffffffffff821115620002995762000298620001f7565b5b602082029050602081019050919050565b600080fd5b600080fd5b600067ffffffffffffffff821115620002d257620002d1620001f7565b5b620002dd82620001e6565b9050602081019050919050565b60005b838110156200030a578082015181840152602081019050620002ed565b60008484015250505050565b60006200032d6200032784620002b4565b6200025c565b9050828152602081018484840111156200034c576200034b620002af565b5b62000359848285620002ea565b509392505050565b600082601f830112620003795762000378620001e1565b5b81516200038b84826020860162000316565b91505092915050565b6000620003ab620003a5846200027b565b6200025c565b90508083825260208201905060208402830185811115620003d157620003d0620002aa565b5b835b818110156200041f57805167ffffffffffffffff811115620003fa57620003f9620001e1565b5b80860162000409898262000361565b85526020850194505050602081019050620003d3565b5050509392505050565b600082601f830112620004415762000440620001e1565b5b81516200045384826020860162000394565b91505092915050565b600080604083850312156200047657620004756200019c565b5b60006200048685828601620001ca565b925050602083015167ffffffffffffffff811115620004aa57620004a9620001a1565b5b620004b88582860162000429565b9150509250929050565b600081519050919050565b7f4e487b7100000000000000000000000000000000000000000000000000000000600052602260045260246000fd5b600060028204905060018216806200051557607f821691505b6020821081036200052b576200052a620004cd565b5b50919050565b60008190508160005260206000209050919050565b60006020601f8301049050919050565b600082821b905092915050565b600060088302620005957fffffffffffffffffffffffffffffffffffffffffffffffffffffffffffffffff8262000556565b620005a1868362000556565b95508019841693508086168417925050509392505050565b6000819050919050565b6000620005e4620005de620005d884620001a6565b620005b9565b620001a6565b9050919050565b6000819050919050565b6200060083620005c3565b620006186200060f82620005eb565b84845462000563565b825550505050565b600090565b6200062f62000620565b6200063c818484620005f5565b505050565b5b8181101562000664576200065860008262000625565b60018101905062000642565b5050565b601f821115620006b3576200067d8162000531565b620006888462000546565b8101602085101562000698578190505b620006b0620006a78562000546565b83018262000641565b50505b505050565b600082821c905092915050565b6000620006d860001984600802620006b8565b1980831691505092915050565b6000620006f38383620006c5565b9150826002028217905092915050565b6200070e82620004c2565b67ffffffffffffffff8111156200072a5762000729620001f7565b5b620007368254620004fc565b6200074382828562000668565b600060209050601f8311600181146200077b576000841562000766578287015190505b620007728582620006e5565b865550620007e2565b601f1984166200078b8662000531565b60005b82811015620007b5578489015182556001820191506020850194506020810190506200078e565b86831015620007d55784890151620007d1601f891682620006c5565b8355505b6001600288020188555050505b505050505050565b611a7d80620007fa6000396000f3fe608060405234801561001057600080fd5b506004361061010b5760003560e01c80634717f97c116100a2578063a9059cbb11610071578063a9059cbb146102e4578063caf4468314610314578063ce7ea16114610344578063dd62ed3e14610362578063fc36e15b146103925761010b565b80634717f97c1461024857806370a082311461026657806376e5908a1461029657806395d89b41146102c65761010b565b806323b872dd116100de57806323b872dd1461019a57806329e99f07146101ca578063313ce567146101fa5780633477ee2e146102185761010b565b806306a49fce1461011057806306fdde031461012e578063095ea7b31461014c57806318160ddd1461017c575b600080fd5b6101186103c2565b6040516101259190611250565b60405180910390f35b61013661049b565b60405161014391906112bc565b60405180910390f35b61016660048036038101906101619190611386565b6104d4565b60405161017391906113e1565b60405180910390f35b6101846105c6565b604051610191919061140b565b60405180910390f35b6101b460048036038101906101af9190611426565b6105d0565b6040516101c191906113e1565b60405180910390f35b6101e460048036038101906101df9190611479565b610950565b6040516101f191906112bc565b60405180910390f35b610202610a00565b60405161020f91906114c2565b60405180910390f35b610232600480360381019061022d9190611479565b610a05565b60405161023f91906112bc565b60405180910390f35b610250610ab1565b60405161025d919061159b565b60405180910390f35b610280600480360381019061027b91906115bd565b610b40565b60405161028d919061140b565b60405180910390f35b6102b060048036038101906102ab91906115bd565b610b89565b6040516102bd919061140b565b60405180910390f35b6102ce610bd2565b6040516102db91906112bc565b60405180910390f35b6102fe60048036038101906102f99190611386565b610c0b565b60405161030b91906113e1565b60405180910390f35b61032e60048036038101906103299190611479565b610df2565b60405161033b919061140b565b60405180910390f35b61034c610e37565b604051610359919061140b565b60405180910390f35b61037c600480360381019061037791906115ea565b610e3c565b604051610389919061140b565b60405180910390f35b6103ac60048036038101906103a7919061175f565b610ec3565b6040516103b991906113e1565b60405180910390f35b60606000805480602002602001604051908101604052809291908181526020016000905b82821015610492578382906000526020600020018054610405906117d7565b80601f0160208091040260200160405190810160405280929190818152602001828054610431906117d7565b801561047e5780601f106104535761010080835404028352916020019161047e565b820191906000526020600020905b81548152906001019060200180831161046157829003601f168201915b5050505050815260200190600101906103e6565b50505050905090565b6040518060400160405280600b81526020017f566f74696e67426173696300000000000000000000000000000000000000000081525081565b600081600460003373ffffffffffffffffffffffffffffffffffffffff1673ffffffffffffffffffffffffffffffffffffffff16815260200190815260200160002060008573ffffffffffffffffffffffffffffffffffffffff1673ffffffffffffffffffffffffffffffffffffffff168152602001908152602001600020819055508273ffffffffffffffffffffffffffffffffffffffff163373ffffffffffffffffffffffffffffffffffffffff167f8c5be1e5ebec7d5bd14f71427d1e84f3dd0314c0f7b2291e5b200ac8c7c3b925846040516105b4919061140b565b60405180910390a36001905092915050565b6000600554905090565b6000600160008573ffffffffffffffffffffffffffffffffffffffff1673ffffffffffffffffffffffffffffffffffffffff1681526020019081526020016000205482111561061e57600080fd5b600460008573ffffffffffffffffffffffffffffffffffffffff1673ffffffffffffffffffffffffffffffffffffffff16815260200190815260200160002060003373ffffffffffffffffffffffffffffffffffffffff1673ffffffffffffffffffffffffffffffffffffffff168152602001908152602001600020548211156106a757600080fd5b6106f982600160008773ffffffffffffffffffffffffffffffffffffffff1673ffffffffffffffffffffffffffffffffffffffff168152602001908152602001600020546110ab90919063ffffffff16565b600160008673ffffffffffffffffffffffffffffffffffffffff1673ffffffffffffffffffffffffffffffffffffffff168152602001908152602001600020819055506107cb82600460008773ffffffffffffffffffffffffffffffffffffffff1673ffffffffffffffffffffffffffffffffffffffff16815260200190815260200160002060003373ffffffffffffffffffffffffffffffffffffffff1673ffffffffffffffffffffffffffffffffffffffff168152602001908152602001600020546110ab90919063ffffffff16565b600460008673ffffffffffffffffffffffffffffffffffffffff1673ffffffffffffffffffffffffffffffffffffffff16815260200190815260200160002060003373ffffffffffffffffffffffffffffffffffffffff1673ffffffffffffffffffffffffffffffffffffffff1681526020019081526020016000208190555061089d82600160008673ffffffffffffffffffffffffffffffffffffffff1673ffffffffffffffffffffffffffffffffffffffff168152602001908152602001600020546110d290919063ffffffff16565b600160008573ffffffffffffffffffffffffffffffffffffffff1673ffffffffffffffffffffffffffffffffffffffff168152602001908152602001600020819055508273ffffffffffffffffffffffffffffffffffffffff168473ffffffffffffffffffffffffffffffffffffffff167fddf252ad1be2c89b69c2b068fc378daa952ba7f163c4a11628f55a4df523b3ef8460405161093d919061140b565b60405180910390a3600190509392505050565b60606000828154811061096657610965611808565b5b90600052602060002001805461097b906117d7565b80601f01602080910402602001604051908101604052809291908181526020018280546109a7906117d7565b80156109f45780601f106109c9576101008083540402835291602001916109f4565b820191906000526020600020905b8154815290600101906020018083116109d757829003601f168201915b50505050509050919050565b601281565b60008181548110610a1557600080fd5b906000526020600020016000915090508054610a30906117d7565b80601f0160208091040260200160405190810160405280929190818152602001828054610a5c906117d7565b8015610aa95780601f10610a7e57610100808354040283529160200191610aa9565b820191906000526020600020905b815481529060010190602001808311610a8c57829003601f168201915b505050505081565b60608060005b600080549050811015610b38576000600360008381548110610adc57610adb611808565b5b90600052602060002001604051610af391906118da565b908152602001604051809103902054905080838381518110610b1857610b17611808565b5b602002602001018181525050508080610b3090611920565b915050610ab7565b508091505090565b6000600160008373ffffffffffffffffffffffffffffffffffffffff1673ffffffffffffffffffffffffffffffffffffffff168152602001908152602001600020549050919050565b6000600260008373ffffffffffffffffffffffffffffffffffffffff1673ffffffffffffffffffffffffffffffffffffffff168152602001908152602001600020549050919050565b6040518060400160405280600381526020017f56544b000000000000000000000000000000000000000000000000000000000081525081565b6000600160003373ffffffffffffffffffffffffffffffffffffffff1673ffffffffffffffffffffffffffffffffffffffff16815260200190815260200160002054821115610c5957600080fd5b610cab82600160003373ffffffffffffffffffffffffffffffffffffffff1673ffffffffffffffffffffffffffffffffffffffff168152602001908152602001600020546110ab90919063ffffffff16565b600160003373ffffffffffffffffffffffffffffffffffffffff1673ffffffffffffffffffffffffffffffffffffffff16815260200190815260200160002081905550610d4082600160008673ffffffffffffffffffffffffffffffffffffffff1673ffffffffffffffffffffffffffffffffffffffff168152602001908152602001600020546110d290919063ffffffff16565b600160008573ffffffffffffffffffffffffffffffffffffffff1673ffffffffffffffffffffffffffffffffffffffff168152602001908152602001600020819055508273ffffffffffffffffffffffffffffffffffffffff163373ffffffffffffffffffffffffffffffffffffffff167fddf252ad1be2c89b69c2b068fc378daa952ba7f163c4a11628f55a4df523b3ef84604051610de0919061140b565b60405180910390a36001905092915050565b6000600360008381548110610e0a57610e09611808565b5b90600052602060002001604051610e2191906118da565b9081526020016040518091039020549050919050565b600081565b6000600460008473ffffffffffffffffffffffffffffffffffffffff1673ffffffffffffffffffffffffffffffffffffffff16815260200190815260200160002060008373ffffffffffffffffffffffffffffffffffffffff1673ffffffffffffffffffffffffffffffffffffffff16815260200190815260200160002054905092915050565b6000600260003373ffffffffffffffffffffffffffffffffffffffff1673ffffffffffffffffffffffffffffffffffffffff16815260200190815260200160002054600160003373ffffffffffffffffffffffffffffffffffffffff1673ffffffffffffffffffffffffffffffffffffffff16815260200190815260200160002054118015610f9257506000600160003373ffffffffffffffffffffffffffffffffffffffff1673ffffffffffffffffffffffffffffffffffffffff1681526020019081526020016000205414155b610f9b57600080fd5b6001600260003373ffffffffffffffffffffffffffffffffffffffff1673ffffffffffffffffffffffffffffffffffffffff1681526020019081526020016000205410156110a2576001600260003373ffffffffffffffffffffffffffffffffffffffff1673ffffffffffffffffffffffffffffffffffffffff16815260200190815260200160002081905550600160038360405161103a9190611999565b9081526020016040518091039020600082825461105791906119b0565b925050819055503373ffffffffffffffffffffffffffffffffffffffff167ff5b08346e1e6b0b55d07ce94e81fcb198d47fbbecfea3b9a476f454c86761ec460405160405180910390a25b60019050919050565b6000828211156110be576110bd6119e4565b5b81836110ca9190611a13565b905092915050565b60008082846110e191906119b0565b9050838110156110f4576110f36119e4565b5b8091505092915050565b600081519050919050565b600082825260208201905092915050565b6000819050602082019050919050565b600081519050919050565b600082825260208201905092915050565b60005b83811015611164578082015181840152602081019050611149565b60008484015250505050565b6000601f19601f8301169050919050565b600061118c8261112a565b6111968185611135565b93506111a6818560208601611146565b6111af81611170565b840191505092915050565b60006111c68383611181565b905092915050565b6000602082019050919050565b60006111e6826110fe565b6111f08185611109565b9350836020820285016112028561111a565b8060005b8581101561123e578484038952815161121f85826111ba565b945061122a836111ce565b925060208a01995050600181019050611206565b50829750879550505050505092915050565b6000602082019050818103600083015261126a81846111db565b905092915050565b600082825260208201905092915050565b600061128e8261112a565b6112988185611272565b93506112a8818560208601611146565b6112b181611170565b840191505092915050565b600060208201905081810360008301526112d68184611283565b905092915050565b6000604051905090565b600080fd5b600080fd5b600073ffffffffffffffffffffffffffffffffffffffff82169050919050565b600061131d826112f2565b9050919050565b61132d81611312565b811461133857600080fd5b50565b60008135905061134a81611324565b92915050565b6000819050919050565b61136381611350565b811461136e57600080fd5b50565b6000813590506113808161135a565b92915050565b6000806040838503121561139d5761139c6112e8565b5b60006113ab8582860161133b565b92505060206113bc85828601611371565b9150509250929050565b60008115159050919050565b6113db816113c6565b82525050565b60006020820190506113f660008301846113d2565b92915050565b61140581611350565b82525050565b600060208201905061142060008301846113fc565b92915050565b60008060006060848603121561143f5761143e6112e8565b5b600061144d8682870161133b565b935050602061145e8682870161133b565b925050604061146f86828701611371565b9150509250925092565b60006020828403121561148f5761148e6112e8565b5b600061149d84828501611371565b91505092915050565b600060ff82169050919050565b6114bc816114a6565b82525050565b60006020820190506114d760008301846114b3565b92915050565b600081519050919050565b600082825260208201905092915050565b6000819050602082019050919050565b61151281611350565b82525050565b60006115248383611509565b60208301905092915050565b6000602082019050919050565b6000611548826114dd565b61155281856114e8565b935061155d836114f9565b8060005b8381101561158e5781516115758882611518565b975061158083611530565b925050600181019050611561565b5085935050505092915050565b600060208201905081810360008301526115b5818461153d565b905092915050565b6000602082840312156115d3576115d26112e8565b5b60006115e18482850161133b565b91505092915050565b60008060408385031215611601576116006112e8565b5b600061160f8582860161133b565b92505060206116208582860161133b565b9150509250929050565b600080fd5b600080fd5b7f4e487b7100000000000000000000000000000000000000000000000000000000600052604160045260246000fd5b61166c82611170565b810181811067ffffffffffffffff8211171561168b5761168a611634565b5b80604052505050565b600061169e6112de565b90506116aa8282611663565b919050565b600067ffffffffffffffff8211156116ca576116c9611634565b5b6116d382611170565b9050602081019050919050565b82818337600083830152505050565b60006117026116fd846116af565b611694565b90508281526020810184848401111561171e5761171d61162f565b5b6117298482856116e0565b509392505050565b600082601f8301126117465761174561162a565b5b81356117568482602086016116ef565b91505092915050565b600060208284031215611775576117746112e8565b5b600082013567ffffffffffffffff811115611793576117926112ed565b5b61179f84828501611731565b91505092915050565b7f4e487b7100000000000000000000000000000000000000000000000000000000600052602260045260246000fd5b600060028204905060018216806117ef57607f821691505b602082108103611802576118016117a8565b5b50919050565b7f4e487b7100000000000000000000000000000000000000000000000000000000600052603260045260246000fd5b600081905092915050565b60008190508160005260206000209050919050565b60008154611864816117d7565b61186e8186611837565b94506001821660008114611889576001811461189e576118d1565b60ff19831686528115158202860193506118d1565b6118a785611842565b60005b838110156118c9578154818901526001820191506020810190506118aa565b838801955050505b50505092915050565b60006118e68284611857565b915081905092915050565b7f4e487b7100000000000000000000000000000000000000000000000000000000600052601160045260246000fd5b600061192b82611350565b91507fffffffffffffffffffffffffffffffffffffffffffffffffffffffffffffffff820361195d5761195c6118f1565b5b600182019050919050565b60006119738261112a565b61197d8185611837565b935061198d818560208601611146565b80840191505092915050565b60006119a58284611968565b915081905092915050565b60006119bb82611350565b91506119c683611350565b92508282019050808211156119de576119dd6118f1565b5b92915050565b7f4e487b7100000000000000000000000000000000000000000000000000000000600052600160045260246000fd5b6000611a1e82611350565b9150611a2983611350565b9250828203905081811115611a4157611a406118f1565b5b9291505056fea2646970667358221220dbced6383638896b94e1ef96d319a2a95464e0ddff898fa68cb6aa87336bb6f764736f6c63430008110033",
  "linkReferences": {},
  "deployedLinkReferences": {}
}