{
  "_format": "hh-sol-artifact-1",
  "contractName": "VotingTokenERC20",
  "sourceName": "contracts/VotingTokenERC20.sol",
  "abi": [
    {
      "inputs": [
        {
          "internalType": "uint256",
          "name": "total",
          "type": "uint256"
        },
        {
          "internalType": "string[]",
          "name": "candidateNames",
          "type": "string[]"
        }
      ],
      "stateMutability": "nonpayable",
      "type": "constructor"
    },
    {
      "anonymous": false,
      "inputs": [
        {
          "indexed": true,
          "internalType": "address",
          "name": "tokenOwner",
          "type": "address"
        },
        {
          "indexed": true,
          "internalType": "address",
          "name": "spender",
          "type": "address"
        },
        {
          "indexed": false,
          "internalType": "uint256",
          "name": "tokens",
          "type": "uint256"
        }
      ],
      "name": "Approval",
      "type": "event"
    },
    {
      "anonymous": false,
      "inputs": [
        {
          "indexed": true,
          "internalType": "address",
          "name": "from",
          "type": "address"
        },
        {
          "indexed": true,
          "internalType": "address",
          "name": "to",
          "type": "address"
        },
        {
          "indexed": false,
          "internalType": "uint256",
          "name": "tokens",
          "type": "uint256"
        }
      ],
      "name": "Transfer",
      "type": "event"
    },
    {
      "anonymous": false,
      "inputs": [
        {
          "indexed": true,
          "internalType": "address",
          "name": "from",
          "type": "address"
        }
      ],
      "name": "Vote",
      "type": "event"
    },
    {
      "inputs": [
        {
          "internalType": "address",
          "name": "tokenOwner",
          "type": "address"
        }
      ],
      "name": "balanceOf",
      "outputs": [
        {
          "internalType": "uint256",
          "name": "",
          "type": "uint256"
        }
      ],
      "stateMutability": "view",
      "type": "function"
    },
    {
      "inputs": [],
      "name": "calculateResults",
      "outputs": [],
      "stateMutability": "nonpayable",
      "type": "function"
    },
    {
      "inputs": [
        {
          "internalType": "uint256",
          "name": "",
          "type": "uint256"
        }
      ],
      "name": "candidates",
      "outputs": [
        {
          "internalType": "uint256",
          "name": "id",
          "type": "uint256"
        },
        {
          "internalType": "string",
          "name": "name",
          "type": "string"
        },
        {
          "internalType": "uint256",
          "name": "votes",
          "type": "uint256"
        }
      ],
      "stateMutability": "view",
      "type": "function"
    },
    {
      "inputs": [
        {
          "internalType": "address",
          "name": "tokenOwner",
          "type": "address"
        }
      ],
      "name": "castedVotes",
      "outputs": [
        {
          "internalType": "uint256",
          "name": "",
          "type": "uint256"
        }
      ],
      "stateMutability": "view",
      "type": "function"
    },
    {
      "inputs": [
        {
          "internalType": "string",
          "name": "a",
          "type": "string"
        },
        {
          "internalType": "string",
          "name": "b",
          "type": "string"
        }
      ],
      "name": "compare",
      "outputs": [
        {
          "internalType": "bool",
          "name": "",
          "type": "bool"
        }
      ],
      "stateMutability": "pure",
      "type": "function"
    },
    {
      "inputs": [
        {
          "internalType": "string",
          "name": "s1",
          "type": "string"
        },
        {
          "internalType": "string",
          "name": "s2",
          "type": "string"
        }
      ],
      "name": "compareTwoStrings",
      "outputs": [
        {
          "internalType": "bool",
          "name": "",
          "type": "bool"
        }
      ],
      "stateMutability": "pure",
      "type": "function"
    },
    {
      "inputs": [],
      "name": "electionEnd",
      "outputs": [
        {
          "internalType": "uint256",
          "name": "",
          "type": "uint256"
        }
      ],
      "stateMutability": "view",
      "type": "function"
    },
    {
      "inputs": [],
      "name": "getCandidates",
      "outputs": [
        {
          "components": [
            {
              "internalType": "uint256",
              "name": "id",
              "type": "uint256"
            },
            {
              "internalType": "string",
              "name": "name",
              "type": "string"
            },
            {
              "internalType": "uint256",
              "name": "votes",
              "type": "uint256"
            }
          ],
          "internalType": "struct VotingTokenERC20.Candidate[]",
          "name": "",
          "type": "tuple[]"
        }
      ],
      "stateMutability": "view",
      "type": "function"
    },
    {
      "inputs": [],
      "name": "getResults",
      "outputs": [
        {
          "internalType": "uint256[]",
          "name": "",
          "type": "uint256[]"
        }
      ],
      "stateMutability": "view",
      "type": "function"
    },
    {
      "inputs": [],
      "name": "name",
      "outputs": [
        {
          "internalType": "string",
          "name": "",
          "type": "string"
        }
      ],
      "stateMutability": "view",
      "type": "function"
    },
    {
      "inputs": [],
      "name": "numCandidates",
      "outputs": [
        {
          "internalType": "uint256",
          "name": "",
          "type": "uint256"
        }
      ],
      "stateMutability": "view",
      "type": "function"
    },
    {
      "inputs": [
        {
          "internalType": "uint256",
          "name": "",
          "type": "uint256"
        }
      ],
      "name": "results",
      "outputs": [
        {
          "internalType": "uint256",
          "name": "",
          "type": "uint256"
        }
      ],
      "stateMutability": "view",
      "type": "function"
    },
    {
      "inputs": [],
      "name": "symbol",
      "outputs": [
        {
          "internalType": "string",
          "name": "",
          "type": "string"
        }
      ],
      "stateMutability": "view",
      "type": "function"
    },
    {
      "inputs": [],
      "name": "totalSupply",
      "outputs": [
        {
          "internalType": "uint256",
          "name": "",
          "type": "uint256"
        }
      ],
      "stateMutability": "view",
      "type": "function"
    },
    {
      "inputs": [
        {
          "internalType": "address",
          "name": "receiver",
          "type": "address"
        },
        {
          "internalType": "uint256",
          "name": "numTokens",
          "type": "uint256"
        }
      ],
      "name": "transfer",
      "outputs": [
        {
          "internalType": "bool",
          "name": "",
          "type": "bool"
        }
      ],
      "stateMutability": "nonpayable",
      "type": "function"
    },
    {
      "inputs": [
        {
          "internalType": "string",
          "name": "_nameCandidate",
          "type": "string"
        }
      ],
      "name": "vote",
      "outputs": [
        {
          "internalType": "bool",
          "name": "",
          "type": "bool"
        }
      ],
      "stateMutability": "nonpayable",
      "type": "function"
    }
  ],
  "bytecode": "0x608060405260006001553480156200001657600080fd5b5060405162001ef238038062001ef283398181016040528101906200003c91906200042c565b81600781905550600754600260003373ffffffffffffffffffffffffffffffffffffffff1673ffffffffffffffffffffffffffffffffffffffff1681526020019081526020016000208190555060005b8151811015620000da57620000c4828281518110620000b057620000af62000492565b5b6020026020010151620000e360201b60201c565b8080620000d190620004f0565b9150506200008c565b50505062000865565b6040518060600160405280600154815260200182815260200160008152506006600060015481526020019081526020016000206000820151816000015560208201518160010190816200013791906200077e565b5060408201518160020155905050600160008154809291906200015a90620004f0565b919050555050565b6000604051905090565b600080fd5b600080fd5b6000819050919050565b6200018b8162000176565b81146200019757600080fd5b50565b600081519050620001ab8162000180565b92915050565b600080fd5b6000601f19601f8301169050919050565b7f4e487b7100000000000000000000000000000000000000000000000000000000600052604160045260246000fd5b6200020182620001b6565b810181811067ffffffffffffffff82111715620002235762000222620001c7565b5b80604052505050565b60006200023862000162565b9050620002468282620001f6565b919050565b600067ffffffffffffffff821115620002695762000268620001c7565b5b602082029050602081019050919050565b600080fd5b600080fd5b600067ffffffffffffffff821115620002a257620002a1620001c7565b5b620002ad82620001b6565b9050602081019050919050565b60005b83811015620002da578082015181840152602081019050620002bd565b60008484015250505050565b6000620002fd620002f78462000284565b6200022c565b9050828152602081018484840111156200031c576200031b6200027f565b5b62000329848285620002ba565b509392505050565b600082601f830112620003495762000348620001b1565b5b81516200035b848260208601620002e6565b91505092915050565b60006200037b62000375846200024b565b6200022c565b90508083825260208201905060208402830185811115620003a157620003a06200027a565b5b835b81811015620003ef57805167ffffffffffffffff811115620003ca57620003c9620001b1565b5b808601620003d9898262000331565b85526020850194505050602081019050620003a3565b5050509392505050565b600082601f830112620004115762000410620001b1565b5b81516200042384826020860162000364565b91505092915050565b600080604083850312156200044657620004456200016c565b5b600062000456858286016200019a565b925050602083015167ffffffffffffffff8111156200047a576200047962000171565b5b6200048885828601620003f9565b9150509250929050565b7f4e487b7100000000000000000000000000000000000000000000000000000000600052603260045260246000fd5b7f4e487b7100000000000000000000000000000000000000000000000000000000600052601160045260246000fd5b6000620004fd8262000176565b91507fffffffffffffffffffffffffffffffffffffffffffffffffffffffffffffffff8203620005325762000531620004c1565b5b600182019050919050565b600081519050919050565b7f4e487b7100000000000000000000000000000000000000000000000000000000600052602260045260246000fd5b600060028204905060018216806200059057607f821691505b602082108103620005a657620005a562000548565b5b50919050565b60008190508160005260206000209050919050565b60006020601f8301049050919050565b600082821b905092915050565b600060088302620006107fffffffffffffffffffffffffffffffffffffffffffffffffffffffffffffffff82620005d1565b6200061c8683620005d1565b95508019841693508086168417925050509392505050565b6000819050919050565b60006200065f62000659620006538462000176565b62000634565b62000176565b9050919050565b6000819050919050565b6200067b836200063e565b620006936200068a8262000666565b848454620005de565b825550505050565b600090565b620006aa6200069b565b620006b781848462000670565b505050565b5b81811015620006df57620006d3600082620006a0565b600181019050620006bd565b5050565b601f8211156200072e57620006f881620005ac565b6200070384620005c1565b8101602085101562000713578190505b6200072b6200072285620005c1565b830182620006bc565b50505b505050565b600082821c905092915050565b6000620007536000198460080262000733565b1980831691505092915050565b60006200076e838362000740565b9150826002028217905092915050565b62000789826200053d565b67ffffffffffffffff811115620007a557620007a4620001c7565b5b620007b1825462000577565b620007be828285620006e3565b600060209050601f831160018114620007f65760008415620007e1578287015190505b620007ed858262000760565b8655506200085d565b601f1984166200080686620005ac565b60005b82811015620008305784890151825560018201915060208501945060208101905062000809565b868310156200085057848901516200084c601f89168262000740565b8355505b6001600288020188555050505b505050505050565b61167d80620008756000396000f3fe608060405234801561001057600080fd5b50600436106101005760003560e01c80635216509a11610097578063a9059cbb11610066578063a9059cbb146102b5578063ce7ea161146102e5578063ef01a9a814610303578063fc36e15b1461033357610100565b80635216509a1461021957806370a082311461023757806376e5908a1461026757806395d89b411461029757610100565b80632ccb0d1e116100d35780632ccb0d1e1461018f5780633477ee2e146101995780633a96fdd7146101cb5780634717f97c146101fb57610100565b806306a49fce1461010557806306fdde031461012357806318160ddd146101415780631b0c27da1461015f575b600080fd5b61010d610363565b60405161011a9190610f2c565b60405180910390f35b61012b6104cf565b6040516101389190610f98565b60405180910390f35b610149610508565b6040516101569190610fc9565b60405180910390f35b61017960048036038101906101749190611024565b610512565b6040516101869190610fc9565b60405180910390f35b610197610536565b005b6101b360048036038101906101ae9190611024565b6105c0565b6040516101c293929190611051565b60405180910390f35b6101e560048036038101906101e091906111c4565b610672565b6040516101f29190611257565b60405180910390f35b610203610686565b6040516102109190611321565b60405180910390f35b6102216106de565b60405161022e9190610fc9565b60405180910390f35b610251600480360381019061024c91906113a1565b6106e4565b60405161025e9190610fc9565b60405180910390f35b610281600480360381019061027c91906113a1565b61072d565b60405161028e9190610fc9565b60405180910390f35b61029f610776565b6040516102ac9190610f98565b60405180910390f35b6102cf60048036038101906102ca91906113ce565b6107af565b6040516102dc9190611257565b60405180910390f35b6102ed610996565b6040516102fa9190610fc9565b60405180910390f35b61031d600480360381019061031891906111c4565b61099b565b60405161032a9190611257565b60405180910390f35b61034d6004803603810190610348919061140e565b6109f4565b60405161035a9190611257565b60405180910390f35b6060600060015467ffffffffffffffff81111561038357610382611099565b5b6040519080825280602002602001820160405280156103bc57816020015b6103a9610ce6565b8152602001906001900390816103a15790505b50905060005b6001548110156104c7576000600660008381526020019081526020016000209050806040518060600160405290816000820154815260200160018201805461040990611486565b80601f016020809104026020016040519081016040528092919081815260200182805461043590611486565b80156104825780601f1061045757610100808354040283529160200191610482565b820191906000526020600020905b81548152906001019060200180831161046557829003601f168201915b505050505081526020016002820154815250508383815181106104a8576104a76114b7565b5b60200260200101819052505080806104bf90611515565b9150506103c2565b508091505090565b6040518060400160405280600b81526020017f566f74696e67426173696300000000000000000000000000000000000000000081525081565b6000600754905090565b6000818154811061052257600080fd5b906000526020600020016000915090505481565b600060015467ffffffffffffffff81111561055457610553611099565b5b6040519080825280602002602001820160405280156105825781602001602082028036833780820191505090505b50905060005b6001548110156105a557808061059d90611515565b915050610588565b5080600090805190602001906105bc929190610d07565b5050565b60066020528060005260406000206000915090508060000154908060010180546105e990611486565b80601f016020809104026020016040519081016040528092919081815260200182805461061590611486565b80156106625780601f1061063757610100808354040283529160200191610662565b820191906000526020600020905b81548152906001019060200180831161064557829003601f168201915b5050505050908060020154905083565b600061067e838361099b565b905092915050565b606060008054806020026020016040519081016040528092919081815260200182805480156106d457602002820191906000526020600020905b8154815260200190600101908083116106c0575b5050505050905090565b60015481565b6000600260008373ffffffffffffffffffffffffffffffffffffffff1673ffffffffffffffffffffffffffffffffffffffff168152602001908152602001600020549050919050565b6000600360008373ffffffffffffffffffffffffffffffffffffffff1673ffffffffffffffffffffffffffffffffffffffff168152602001908152602001600020549050919050565b6040518060400160405280600381526020017f56544b000000000000000000000000000000000000000000000000000000000081525081565b6000600260003373ffffffffffffffffffffffffffffffffffffffff1673ffffffffffffffffffffffffffffffffffffffff168152602001908152602001600020548211156107fd57600080fd5b61084f82600260003373ffffffffffffffffffffffffffffffffffffffff1673ffffffffffffffffffffffffffffffffffffffff16815260200190815260200160002054610c9390919063ffffffff16565b600260003373ffffffffffffffffffffffffffffffffffffffff1673ffffffffffffffffffffffffffffffffffffffff168152602001908152602001600020819055506108e482600260008673ffffffffffffffffffffffffffffffffffffffff1673ffffffffffffffffffffffffffffffffffffffff16815260200190815260200160002054610cba90919063ffffffff16565b600260008573ffffffffffffffffffffffffffffffffffffffff1673ffffffffffffffffffffffffffffffffffffffff168152602001908152602001600020819055508273ffffffffffffffffffffffffffffffffffffffff163373ffffffffffffffffffffffffffffffffffffffff167fddf252ad1be2c89b69c2b068fc378daa952ba7f163c4a11628f55a4df523b3ef846040516109849190610fc9565b60405180910390a36001905092915050565b600081565b6000816040516020016109ae9190611599565b60405160208183030381529060405280519060200120836040516020016109d59190611599565b6040516020818303038152906040528051906020012014905092915050565b6000600360003373ffffffffffffffffffffffffffffffffffffffff1673ffffffffffffffffffffffffffffffffffffffff16815260200190815260200160002054600260003373ffffffffffffffffffffffffffffffffffffffff1673ffffffffffffffffffffffffffffffffffffffff16815260200190815260200160002054118015610ac357506000600260003373ffffffffffffffffffffffffffffffffffffffff1673ffffffffffffffffffffffffffffffffffffffff1681526020019081526020016000205414155b610acc57600080fd5b6001600360003373ffffffffffffffffffffffffffffffffffffffff1673ffffffffffffffffffffffffffffffffffffffff168152602001908152602001600020541015610c8a5760005b600154811015610c45576000600660008381526020019081526020016000209050610bce816001018054610b4a90611486565b80601f0160208091040260200160405190810160405280929190818152602001828054610b7690611486565b8015610bc35780601f10610b9857610100808354040283529160200191610bc3565b820191906000526020600020905b815481529060010190602001808311610ba657829003601f168201915b505050505085610672565b15610c31578060020160008154610be490611515565b919050819055506001600360003373ffffffffffffffffffffffffffffffffffffffff1673ffffffffffffffffffffffffffffffffffffffff168152602001908152602001600020819055505b508080610c3d90611515565b915050610b17565b503373ffffffffffffffffffffffffffffffffffffffff167ff5b08346e1e6b0b55d07ce94e81fcb198d47fbbecfea3b9a476f454c86761ec460405160405180910390a25b60019050919050565b600082821115610ca657610ca56115b0565b5b8183610cb291906115df565b905092915050565b6000808284610cc99190611613565b905083811015610cdc57610cdb6115b0565b5b8091505092915050565b60405180606001604052806000815260200160608152602001600081525090565b828054828255906000526020600020908101928215610d43579160200282015b82811115610d42578251825591602001919060010190610d27565b5b509050610d509190610d54565b5090565b5b80821115610d6d576000816000905550600101610d55565b5090565b600081519050919050565b600082825260208201905092915050565b6000819050602082019050919050565b6000819050919050565b610db081610d9d565b82525050565b600081519050919050565b600082825260208201905092915050565b60005b83811015610df0578082015181840152602081019050610dd5565b60008484015250505050565b6000601f19601f8301169050919050565b6000610e1882610db6565b610e228185610dc1565b9350610e32818560208601610dd2565b610e3b81610dfc565b840191505092915050565b6000606083016000830151610e5e6000860182610da7565b5060208301518482036020860152610e768282610e0d565b9150506040830151610e8b6040860182610da7565b508091505092915050565b6000610ea28383610e46565b905092915050565b6000602082019050919050565b6000610ec282610d71565b610ecc8185610d7c565b935083602082028501610ede85610d8d565b8060005b85811015610f1a5784840389528151610efb8582610e96565b9450610f0683610eaa565b925060208a01995050600181019050610ee2565b50829750879550505050505092915050565b60006020820190508181036000830152610f468184610eb7565b905092915050565b600082825260208201905092915050565b6000610f6a82610db6565b610f748185610f4e565b9350610f84818560208601610dd2565b610f8d81610dfc565b840191505092915050565b60006020820190508181036000830152610fb28184610f5f565b905092915050565b610fc381610d9d565b82525050565b6000602082019050610fde6000830184610fba565b92915050565b6000604051905090565b600080fd5b600080fd5b61100181610d9d565b811461100c57600080fd5b50565b60008135905061101e81610ff8565b92915050565b60006020828403121561103a57611039610fee565b5b60006110488482850161100f565b91505092915050565b60006060820190506110666000830186610fba565b81810360208301526110788185610f5f565b90506110876040830184610fba565b949350505050565b600080fd5b600080fd5b7f4e487b7100000000000000000000000000000000000000000000000000000000600052604160045260246000fd5b6110d182610dfc565b810181811067ffffffffffffffff821117156110f0576110ef611099565b5b80604052505050565b6000611103610fe4565b905061110f82826110c8565b919050565b600067ffffffffffffffff82111561112f5761112e611099565b5b61113882610dfc565b9050602081019050919050565b82818337600083830152505050565b600061116761116284611114565b6110f9565b90508281526020810184848401111561118357611182611094565b5b61118e848285611145565b509392505050565b600082601f8301126111ab576111aa61108f565b5b81356111bb848260208601611154565b91505092915050565b600080604083850312156111db576111da610fee565b5b600083013567ffffffffffffffff8111156111f9576111f8610ff3565b5b61120585828601611196565b925050602083013567ffffffffffffffff81111561122657611225610ff3565b5b61123285828601611196565b9150509250929050565b60008115159050919050565b6112518161123c565b82525050565b600060208201905061126c6000830184611248565b92915050565b600081519050919050565b600082825260208201905092915050565b6000819050602082019050919050565b60006112aa8383610da7565b60208301905092915050565b6000602082019050919050565b60006112ce82611272565b6112d8818561127d565b93506112e38361128e565b8060005b838110156113145781516112fb888261129e565b9750611306836112b6565b9250506001810190506112e7565b5085935050505092915050565b6000602082019050818103600083015261133b81846112c3565b905092915050565b600073ffffffffffffffffffffffffffffffffffffffff82169050919050565b600061136e82611343565b9050919050565b61137e81611363565b811461138957600080fd5b50565b60008135905061139b81611375565b92915050565b6000602082840312156113b7576113b6610fee565b5b60006113c58482850161138c565b91505092915050565b600080604083850312156113e5576113e4610fee565b5b60006113f38582860161138c565b92505060206114048582860161100f565b9150509250929050565b60006020828403121561142457611423610fee565b5b600082013567ffffffffffffffff81111561144257611441610ff3565b5b61144e84828501611196565b91505092915050565b7f4e487b7100000000000000000000000000000000000000000000000000000000600052602260045260246000fd5b6000600282049050600182168061149e57607f821691505b6020821081036114b1576114b0611457565b5b50919050565b7f4e487b7100000000000000000000000000000000000000000000000000000000600052603260045260246000fd5b7f4e487b7100000000000000000000000000000000000000000000000000000000600052601160045260246000fd5b600061152082610d9d565b91507fffffffffffffffffffffffffffffffffffffffffffffffffffffffffffffffff8203611552576115516114e6565b5b600182019050919050565b600081905092915050565b600061157382610db6565b61157d818561155d565b935061158d818560208601610dd2565b80840191505092915050565b60006115a58284611568565b915081905092915050565b7f4e487b7100000000000000000000000000000000000000000000000000000000600052600160045260246000fd5b60006115ea82610d9d565b91506115f583610d9d565b925082820390508181111561160d5761160c6114e6565b5b92915050565b600061161e82610d9d565b915061162983610d9d565b9250828201905080821115611641576116406114e6565b5b9291505056fea264697066735822122029d97c4cb2dfb40543d44ccd8c92e3dbe5b9a2a83d42a912b00af2da5a9be44f64736f6c63430008110033",
  "linkReferences": {},
  "deployedLinkReferences": {}
}